{
	"contracts/AboutDynamicBytesArray.sol": {
		"AboutDynamicBytesArray": {
			"abi": [
				{
					"inputs": [
						{
							"internalType": "string",
							"name": "value",
							"type": "string"
						}
					],
					"name": "appendInBytesArray",
					"outputs": [],
					"stateMutability": "nonpayable",
					"type": "function"
				},
				{
					"inputs": [],
					"name": "b1",
					"outputs": [
						{
							"internalType": "bytes",
							"name": "",
							"type": "bytes"
						}
					],
					"stateMutability": "view",
					"type": "function"
				}
			],
			"devdoc": {
				"kind": "dev",
				"methods": {},
				"version": 1
			},
			"evm": {
				"assembly": "    /* \"contracts/AboutDynamicBytesArray.sol\":70:310  contract AboutDynamicBytesArray {... */\n  mstore(0x40, 0x80)\n    /* \"contracts/AboutDynamicBytesArray.sol\":109:130  bytes public b1=\"abc\" */\n  mload(0x40)\n  dup1\n  0x40\n  add\n  0x40\n  mstore\n  dup1\n  0x03\n  dup2\n  mstore\n  0x20\n  add\n  0x6162630000000000000000000000000000000000000000000000000000000000\n  dup2\n  mstore\n  pop\n  0x00\n  swap1\n  dup2\n  tag_1\n  swap2\n  swap1\n  tag_2\n  jump\t// in\ntag_1:\n  pop\n    /* \"contracts/AboutDynamicBytesArray.sol\":70:310  contract AboutDynamicBytesArray {... */\n  callvalue\n  dup1\n  iszero\n  tag_3\n  jumpi\n  0x00\n  dup1\n  revert\ntag_3:\n  pop\n  jump(tag_4)\n    /* \"#utility.yul\":7:106   */\ntag_5:\n    /* \"#utility.yul\":59:65   */\n  0x00\n    /* \"#utility.yul\":93:98   */\n  dup2\n    /* \"#utility.yul\":87:99   */\n  mload\n    /* \"#utility.yul\":77:99   */\n  swap1\n  pop\n    /* \"#utility.yul\":7:106   */\n  swap2\n  swap1\n  pop\n  jump\t// out\n    /* \"#utility.yul\":112:292   */\ntag_6:\n    /* \"#utility.yul\":160:237   */\n  0x4e487b7100000000000000000000000000000000000000000000000000000000\n    /* \"#utility.yul\":157:158   */\n  0x00\n    /* \"#utility.yul\":150:238   */\n  mstore\n    /* \"#utility.yul\":257:261   */\n  0x41\n    /* \"#utility.yul\":254:255   */\n  0x04\n    /* \"#utility.yul\":247:262   */\n  mstore\n    /* \"#utility.yul\":281:285   */\n  0x24\n    /* \"#utility.yul\":278:279   */\n  0x00\n    /* \"#utility.yul\":271:286   */\n  revert\n    /* \"#utility.yul\":298:478   */\ntag_7:\n    /* \"#utility.yul\":346:423   */\n  0x4e487b7100000000000000000000000000000000000000000000000000000000\n    /* \"#utility.yul\":343:344   */\n  0x00\n    /* \"#utility.yul\":336:424   */\n  mstore\n    /* \"#utility.yul\":443:447   */\n  0x22\n    /* \"#utility.yul\":440:441   */\n  0x04\n    /* \"#utility.yul\":433:448   */\n  mstore\n    /* \"#utility.yul\":467:471   */\n  0x24\n    /* \"#utility.yul\":464:465   */\n  0x00\n    /* \"#utility.yul\":457:472   */\n  revert\n    /* \"#utility.yul\":484:804   */\ntag_8:\n    /* \"#utility.yul\":528:534   */\n  0x00\n    /* \"#utility.yul\":565:566   */\n  0x02\n    /* \"#utility.yul\":559:563   */\n  dup3\n    /* \"#utility.yul\":555:567   */\n  div\n    /* \"#utility.yul\":545:567   */\n  swap1\n  pop\n    /* \"#utility.yul\":612:613   */\n  0x01\n    /* \"#utility.yul\":606:610   */\n  dup3\n    /* \"#utility.yul\":602:614   */\n  and\n    /* \"#utility.yul\":633:651   */\n  dup1\n    /* \"#utility.yul\":623:704   */\n  tag_30\n  jumpi\n    /* \"#utility.yul\":689:693   */\n  0x7f\n    /* \"#utility.yul\":681:687   */\n  dup3\n    /* \"#utility.yul\":677:694   */\n  and\n    /* \"#utility.yul\":667:694   */\n  swap2\n  pop\n    /* \"#utility.yul\":623:704   */\ntag_30:\n    /* \"#utility.yul\":751:753   */\n  0x20\n    /* \"#utility.yul\":743:749   */\n  dup3\n    /* \"#utility.yul\":740:754   */\n  lt\n    /* \"#utility.yul\":720:738   */\n  dup2\n    /* \"#utility.yul\":717:755   */\n  sub\n    /* \"#utility.yul\":714:798   */\n  tag_31\n  jumpi\n    /* \"#utility.yul\":770:788   */\n  tag_32\n  tag_7\n  jump\t// in\ntag_32:\n    /* \"#utility.yul\":714:798   */\ntag_31:\n    /* \"#utility.yul\":535:804   */\n  pop\n    /* \"#utility.yul\":484:804   */\n  swap2\n  swap1\n  pop\n  jump\t// out\n    /* \"#utility.yul\":810:950   */\ntag_9:\n    /* \"#utility.yul\":858:862   */\n  0x00\n    /* \"#utility.yul\":881:884   */\n  dup2\n    /* \"#utility.yul\":873:884   */\n  swap1\n  pop\n    /* \"#utility.yul\":904:907   */\n  dup2\n    /* \"#utility.yul\":901:902   */\n  0x00\n    /* \"#utility.yul\":894:908   */\n  mstore\n    /* \"#utility.yul\":938:942   */\n  0x20\n    /* \"#utility.yul\":935:936   */\n  0x00\n    /* \"#utility.yul\":925:943   */\n  keccak256\n    /* \"#utility.yul\":917:943   */\n  swap1\n  pop\n    /* \"#utility.yul\":810:950   */\n  swap2\n  swap1\n  pop\n  jump\t// out\n    /* \"#utility.yul\":956:1049   */\ntag_10:\n    /* \"#utility.yul\":993:999   */\n  0x00\n    /* \"#utility.yul\":1040:1042   */\n  0x20\n    /* \"#utility.yul\":1035:1037   */\n  0x1f\n    /* \"#utility.yul\":1028:1033   */\n  dup4\n    /* \"#utility.yul\":1024:1038   */\n  add\n    /* \"#utility.yul\":1020:1043   */\n  div\n    /* \"#utility.yul\":1010:1043   */\n  swap1\n  pop\n    /* \"#utility.yul\":956:1049   */\n  swap2\n  swap1\n  pop\n  jump\t// out\n    /* \"#utility.yul\":1055:1162   */\ntag_11:\n    /* \"#utility.yul\":1099:1107   */\n  0x00\n    /* \"#utility.yul\":1149:1154   */\n  dup3\n    /* \"#utility.yul\":1143:1147   */\n  dup3\n    /* \"#utility.yul\":1139:1155   */\n  shl\n    /* \"#utility.yul\":1118:1155   */\n  swap1\n  pop\n    /* \"#utility.yul\":1055:1162   */\n  swap3\n  swap2\n  pop\n  pop\n  jump\t// out\n    /* \"#utility.yul\":1168:1561   */\ntag_12:\n    /* \"#utility.yul\":1237:1243   */\n  0x00\n    /* \"#utility.yul\":1287:1288   */\n  0x08\n    /* \"#utility.yul\":1275:1285   */\n  dup4\n    /* \"#utility.yul\":1271:1289   */\n  mul\n    /* \"#utility.yul\":1310:1407   */\n  tag_37\n    /* \"#utility.yul\":1340:1406   */\n  0xffffffffffffffffffffffffffffffffffffffffffffffffffffffffffffffff\n    /* \"#utility.yul\":1329:1338   */\n  dup3\n    /* \"#utility.yul\":1310:1407   */\n  tag_11\n  jump\t// in\ntag_37:\n    /* \"#utility.yul\":1428:1467   */\n  tag_38\n    /* \"#utility.yul\":1458:1466   */\n  dup7\n    /* \"#utility.yul\":1447:1456   */\n  dup4\n    /* \"#utility.yul\":1428:1467   */\n  tag_11\n  jump\t// in\ntag_38:\n    /* \"#utility.yul\":1416:1467   */\n  swap6\n  pop\n    /* \"#utility.yul\":1500:1504   */\n  dup1\n    /* \"#utility.yul\":1496:1505   */\n  not\n    /* \"#utility.yul\":1489:1494   */\n  dup5\n    /* \"#utility.yul\":1485:1506   */\n  and\n    /* \"#utility.yul\":1476:1506   */\n  swap4\n  pop\n    /* \"#utility.yul\":1549:1553   */\n  dup1\n    /* \"#utility.yul\":1539:1547   */\n  dup7\n    /* \"#utility.yul\":1535:1554   */\n  and\n    /* \"#utility.yul\":1528:1533   */\n  dup5\n    /* \"#utility.yul\":1525:1555   */\n  or\n    /* \"#utility.yul\":1515:1555   */\n  swap3\n  pop\n    /* \"#utility.yul\":1244:1561   */\n  pop\n  pop\n    /* \"#utility.yul\":1168:1561   */\n  swap4\n  swap3\n  pop\n  pop\n  pop\n  jump\t// out\n    /* \"#utility.yul\":1567:1644   */\ntag_13:\n    /* \"#utility.yul\":1604:1611   */\n  0x00\n    /* \"#utility.yul\":1633:1638   */\n  dup2\n    /* \"#utility.yul\":1622:1638   */\n  swap1\n  pop\n    /* \"#utility.yul\":1567:1644   */\n  swap2\n  swap1\n  pop\n  jump\t// out\n    /* \"#utility.yul\":1650:1710   */\ntag_14:\n    /* \"#utility.yul\":1678:1681   */\n  0x00\n    /* \"#utility.yul\":1699:1704   */\n  dup2\n    /* \"#utility.yul\":1692:1704   */\n  swap1\n  pop\n    /* \"#utility.yul\":1650:1710   */\n  swap2\n  swap1\n  pop\n  jump\t// out\n    /* \"#utility.yul\":1716:1858   */\ntag_15:\n    /* \"#utility.yul\":1766:1775   */\n  0x00\n    /* \"#utility.yul\":1799:1852   */\n  tag_42\n    /* \"#utility.yul\":1817:1851   */\n  tag_43\n    /* \"#utility.yul\":1826:1850   */\n  tag_44\n    /* \"#utility.yul\":1844:1849   */\n  dup5\n    /* \"#utility.yul\":1826:1850   */\n  tag_13\n  jump\t// in\ntag_44:\n    /* \"#utility.yul\":1817:1851   */\n  tag_14\n  jump\t// in\ntag_43:\n    /* \"#utility.yul\":1799:1852   */\n  tag_13\n  jump\t// in\ntag_42:\n    /* \"#utility.yul\":1786:1852   */\n  swap1\n  pop\n    /* \"#utility.yul\":1716:1858   */\n  swap2\n  swap1\n  pop\n  jump\t// out\n    /* \"#utility.yul\":1864:1939   */\ntag_16:\n    /* \"#utility.yul\":1907:1910   */\n  0x00\n    /* \"#utility.yul\":1928:1933   */\n  dup2\n    /* \"#utility.yul\":1921:1933   */\n  swap1\n  pop\n    /* \"#utility.yul\":1864:1939   */\n  swap2\n  swap1\n  pop\n  jump\t// out\n    /* \"#utility.yul\":1945:2214   */\ntag_17:\n    /* \"#utility.yul\":2055:2094   */\n  tag_47\n    /* \"#utility.yul\":2086:2093   */\n  dup4\n    /* \"#utility.yul\":2055:2094   */\n  tag_15\n  jump\t// in\ntag_47:\n    /* \"#utility.yul\":2116:2207   */\n  tag_48\n    /* \"#utility.yul\":2165:2206   */\n  tag_49\n    /* \"#utility.yul\":2189:2205   */\n  dup3\n    /* \"#utility.yul\":2165:2206   */\n  tag_16\n  jump\t// in\ntag_49:\n    /* \"#utility.yul\":2157:2163   */\n  dup5\n    /* \"#utility.yul\":2150:2154   */\n  dup5\n    /* \"#utility.yul\":2144:2155   */\n  sload\n    /* \"#utility.yul\":2116:2207   */\n  tag_12\n  jump\t// in\ntag_48:\n    /* \"#utility.yul\":2110:2114   */\n  dup3\n    /* \"#utility.yul\":2103:2208   */\n  sstore\n    /* \"#utility.yul\":2021:2214   */\n  pop\n    /* \"#utility.yul\":1945:2214   */\n  pop\n  pop\n  pop\n  jump\t// out\n    /* \"#utility.yul\":2220:2293   */\ntag_18:\n    /* \"#utility.yul\":2265:2268   */\n  0x00\n    /* \"#utility.yul\":2220:2293   */\n  swap1\n  jump\t// out\n    /* \"#utility.yul\":2299:2488   */\ntag_19:\n    /* \"#utility.yul\":2376:2408   */\n  tag_52\n  tag_18\n  jump\t// in\ntag_52:\n    /* \"#utility.yul\":2417:2482   */\n  tag_53\n    /* \"#utility.yul\":2475:2481   */\n  dup2\n    /* \"#utility.yul\":2467:2473   */\n  dup5\n    /* \"#utility.yul\":2461:2465   */\n  dup5\n    /* \"#utility.yul\":2417:2482   */\n  tag_17\n  jump\t// in\ntag_53:\n    /* \"#utility.yul\":2352:2488   */\n  pop\n    /* \"#utility.yul\":2299:2488   */\n  pop\n  pop\n  jump\t// out\n    /* \"#utility.yul\":2494:2680   */\ntag_20:\n    /* \"#utility.yul\":2554:2674   */\ntag_55:\n    /* \"#utility.yul\":2571:2574   */\n  dup2\n    /* \"#utility.yul\":2564:2569   */\n  dup2\n    /* \"#utility.yul\":2561:2575   */\n  lt\n    /* \"#utility.yul\":2554:2674   */\n  iszero\n  tag_57\n  jumpi\n    /* \"#utility.yul\":2625:2664   */\n  tag_58\n    /* \"#utility.yul\":2662:2663   */\n  0x00\n    /* \"#utility.yul\":2655:2660   */\n  dup3\n    /* \"#utility.yul\":2625:2664   */\n  tag_19\n  jump\t// in\ntag_58:\n    /* \"#utility.yul\":2598:2599   */\n  0x01\n    /* \"#utility.yul\":2591:2596   */\n  dup2\n    /* \"#utility.yul\":2587:2600   */\n  add\n    /* \"#utility.yul\":2578:2600   */\n  swap1\n  pop\n    /* \"#utility.yul\":2554:2674   */\n  jump(tag_55)\ntag_57:\n    /* \"#utility.yul\":2494:2680   */\n  pop\n  pop\n  jump\t// out\n    /* \"#utility.yul\":2686:3227   */\ntag_21:\n    /* \"#utility.yul\":2786:2788   */\n  0x1f\n    /* \"#utility.yul\":2781:2784   */\n  dup3\n    /* \"#utility.yul\":2778:2789   */\n  gt\n    /* \"#utility.yul\":2775:3220   */\n  iszero\n  tag_60\n  jumpi\n    /* \"#utility.yul\":2820:2857   */\n  tag_61\n    /* \"#utility.yul\":2851:2856   */\n  dup2\n    /* \"#utility.yul\":2820:2857   */\n  tag_9\n  jump\t// in\ntag_61:\n    /* \"#utility.yul\":2903:2932   */\n  tag_62\n    /* \"#utility.yul\":2921:2931   */\n  dup5\n    /* \"#utility.yul\":2903:2932   */\n  tag_10\n  jump\t// in\ntag_62:\n    /* \"#utility.yul\":2893:2901   */\n  dup2\n    /* \"#utility.yul\":2889:2933   */\n  add\n    /* \"#utility.yul\":3086:3088   */\n  0x20\n    /* \"#utility.yul\":3074:3084   */\n  dup6\n    /* \"#utility.yul\":3071:3089   */\n  lt\n    /* \"#utility.yul\":3068:3117   */\n  iszero\n  tag_63\n  jumpi\n    /* \"#utility.yul\":3107:3115   */\n  dup2\n    /* \"#utility.yul\":3092:3115   */\n  swap1\n  pop\n    /* \"#utility.yul\":3068:3117   */\ntag_63:\n    /* \"#utility.yul\":3130:3210   */\n  tag_64\n    /* \"#utility.yul\":3186:3208   */\n  tag_65\n    /* \"#utility.yul\":3204:3207   */\n  dup6\n    /* \"#utility.yul\":3186:3208   */\n  tag_10\n  jump\t// in\ntag_65:\n    /* \"#utility.yul\":3176:3184   */\n  dup4\n    /* \"#utility.yul\":3172:3209   */\n  add\n    /* \"#utility.yul\":3159:3170   */\n  dup3\n    /* \"#utility.yul\":3130:3210   */\n  tag_20\n  jump\t// in\ntag_64:\n    /* \"#utility.yul\":2790:3220   */\n  pop\n  pop\n    /* \"#utility.yul\":2775:3220   */\ntag_60:\n    /* \"#utility.yul\":2686:3227   */\n  pop\n  pop\n  pop\n  jump\t// out\n    /* \"#utility.yul\":3233:3350   */\ntag_22:\n    /* \"#utility.yul\":3287:3295   */\n  0x00\n    /* \"#utility.yul\":3337:3342   */\n  dup3\n    /* \"#utility.yul\":3331:3335   */\n  dup3\n    /* \"#utility.yul\":3327:3343   */\n  shr\n    /* \"#utility.yul\":3306:3343   */\n  swap1\n  pop\n    /* \"#utility.yul\":3233:3350   */\n  swap3\n  swap2\n  pop\n  pop\n  jump\t// out\n    /* \"#utility.yul\":3356:3525   */\ntag_23:\n    /* \"#utility.yul\":3400:3406   */\n  0x00\n    /* \"#utility.yul\":3433:3484   */\n  tag_68\n    /* \"#utility.yul\":3481:3482   */\n  0x00\n    /* \"#utility.yul\":3477:3483   */\n  not\n    /* \"#utility.yul\":3469:3474   */\n  dup5\n    /* \"#utility.yul\":3466:3467   */\n  0x08\n    /* \"#utility.yul\":3462:3475   */\n  mul\n    /* \"#utility.yul\":3433:3484   */\n  tag_22\n  jump\t// in\ntag_68:\n    /* \"#utility.yul\":3429:3485   */\n  not\n    /* \"#utility.yul\":3514:3518   */\n  dup1\n    /* \"#utility.yul\":3508:3512   */\n  dup4\n    /* \"#utility.yul\":3504:3519   */\n  and\n    /* \"#utility.yul\":3494:3519   */\n  swap2\n  pop\n    /* \"#utility.yul\":3407:3525   */\n  pop\n    /* \"#utility.yul\":3356:3525   */\n  swap3\n  swap2\n  pop\n  pop\n  jump\t// out\n    /* \"#utility.yul\":3530:3825   */\ntag_24:\n    /* \"#utility.yul\":3606:3610   */\n  0x00\n    /* \"#utility.yul\":3752:3781   */\n  tag_70\n    /* \"#utility.yul\":3777:3780   */\n  dup4\n    /* \"#utility.yul\":3771:3775   */\n  dup4\n    /* \"#utility.yul\":3752:3781   */\n  tag_23\n  jump\t// in\ntag_70:\n    /* \"#utility.yul\":3744:3781   */\n  swap2\n  pop\n    /* \"#utility.yul\":3814:3817   */\n  dup3\n    /* \"#utility.yul\":3811:3812   */\n  0x02\n    /* \"#utility.yul\":3807:3818   */\n  mul\n    /* \"#utility.yul\":3801:3805   */\n  dup3\n    /* \"#utility.yul\":3798:3819   */\n  or\n    /* \"#utility.yul\":3790:3819   */\n  swap1\n  pop\n    /* \"#utility.yul\":3530:3825   */\n  swap3\n  swap2\n  pop\n  pop\n  jump\t// out\n    /* \"#utility.yul\":3830:5222   */\ntag_2:\n    /* \"#utility.yul\":3946:3983   */\n  tag_72\n    /* \"#utility.yul\":3979:3982   */\n  dup3\n    /* \"#utility.yul\":3946:3983   */\n  tag_5\n  jump\t// in\ntag_72:\n    /* \"#utility.yul\":4048:4066   */\n  0xffffffffffffffff\n    /* \"#utility.yul\":4040:4046   */\n  dup2\n    /* \"#utility.yul\":4037:4067   */\n  gt\n    /* \"#utility.yul\":4034:4090   */\n  iszero\n  tag_73\n  jumpi\n    /* \"#utility.yul\":4070:4088   */\n  tag_74\n  tag_6\n  jump\t// in\ntag_74:\n    /* \"#utility.yul\":4034:4090   */\ntag_73:\n    /* \"#utility.yul\":4114:4152   */\n  tag_75\n    /* \"#utility.yul\":4146:4150   */\n  dup3\n    /* \"#utility.yul\":4140:4151   */\n  sload\n    /* \"#utility.yul\":4114:4152   */\n  tag_8\n  jump\t// in\ntag_75:\n    /* \"#utility.yul\":4199:4265   */\n  tag_76\n    /* \"#utility.yul\":4258:4264   */\n  dup3\n    /* \"#utility.yul\":4250:4256   */\n  dup3\n    /* \"#utility.yul\":4244:4248   */\n  dup6\n    /* \"#utility.yul\":4199:4265   */\n  tag_21\n  jump\t// in\ntag_76:\n    /* \"#utility.yul\":4292:4293   */\n  0x00\n    /* \"#utility.yul\":4316:4320   */\n  0x20\n    /* \"#utility.yul\":4303:4320   */\n  swap1\n  pop\n    /* \"#utility.yul\":4348:4350   */\n  0x1f\n    /* \"#utility.yul\":4340:4346   */\n  dup4\n    /* \"#utility.yul\":4337:4351   */\n  gt\n    /* \"#utility.yul\":4365:4366   */\n  0x01\n    /* \"#utility.yul\":4360:4977   */\n  dup2\n  eq\n  tag_78\n  jumpi\n    /* \"#utility.yul\":5021:5022   */\n  0x00\n    /* \"#utility.yul\":5038:5044   */\n  dup5\n    /* \"#utility.yul\":5035:5112   */\n  iszero\n  tag_79\n  jumpi\n    /* \"#utility.yul\":5087:5096   */\n  dup3\n    /* \"#utility.yul\":5082:5085   */\n  dup8\n    /* \"#utility.yul\":5078:5097   */\n  add\n    /* \"#utility.yul\":5072:5098   */\n  mload\n    /* \"#utility.yul\":5063:5098   */\n  swap1\n  pop\n    /* \"#utility.yul\":5035:5112   */\ntag_79:\n    /* \"#utility.yul\":5138:5205   */\n  tag_80\n    /* \"#utility.yul\":5198:5204   */\n  dup6\n    /* \"#utility.yul\":5191:5196   */\n  dup3\n    /* \"#utility.yul\":5138:5205   */\n  tag_24\n  jump\t// in\ntag_80:\n    /* \"#utility.yul\":5132:5136   */\n  dup7\n    /* \"#utility.yul\":5125:5206   */\n  sstore\n    /* \"#utility.yul\":4994:5216   */\n  pop\n    /* \"#utility.yul\":4330:5216   */\n  jump(tag_77)\n    /* \"#utility.yul\":4360:4977   */\ntag_78:\n    /* \"#utility.yul\":4412:4416   */\n  0x1f\n    /* \"#utility.yul\":4408:4417   */\n  not\n    /* \"#utility.yul\":4400:4406   */\n  dup5\n    /* \"#utility.yul\":4396:4418   */\n  and\n    /* \"#utility.yul\":4446:4482   */\n  tag_81\n    /* \"#utility.yul\":4477:4481   */\n  dup7\n    /* \"#utility.yul\":4446:4482   */\n  tag_9\n  jump\t// in\ntag_81:\n    /* \"#utility.yul\":4504:4505   */\n  0x00\n    /* \"#utility.yul\":4518:4726   */\ntag_82:\n    /* \"#utility.yul\":4532:4539   */\n  dup3\n    /* \"#utility.yul\":4529:4530   */\n  dup2\n    /* \"#utility.yul\":4526:4540   */\n  lt\n    /* \"#utility.yul\":4518:4726   */\n  iszero\n  tag_84\n  jumpi\n    /* \"#utility.yul\":4611:4620   */\n  dup5\n    /* \"#utility.yul\":4606:4609   */\n  dup10\n    /* \"#utility.yul\":4602:4621   */\n  add\n    /* \"#utility.yul\":4596:4622   */\n  mload\n    /* \"#utility.yul\":4588:4594   */\n  dup3\n    /* \"#utility.yul\":4581:4623   */\n  sstore\n    /* \"#utility.yul\":4662:4663   */\n  0x01\n    /* \"#utility.yul\":4654:4660   */\n  dup3\n    /* \"#utility.yul\":4650:4664   */\n  add\n    /* \"#utility.yul\":4640:4664   */\n  swap2\n  pop\n    /* \"#utility.yul\":4709:4711   */\n  0x20\n    /* \"#utility.yul\":4698:4707   */\n  dup6\n    /* \"#utility.yul\":4694:4712   */\n  add\n    /* \"#utility.yul\":4681:4712   */\n  swap5\n  pop\n    /* \"#utility.yul\":4555:4559   */\n  0x20\n    /* \"#utility.yul\":4552:4553   */\n  dup2\n    /* \"#utility.yul\":4548:4560   */\n  add\n    /* \"#utility.yul\":4543:4560   */\n  swap1\n  pop\n    /* \"#utility.yul\":4518:4726   */\n  jump(tag_82)\ntag_84:\n    /* \"#utility.yul\":4754:4760   */\n  dup7\n    /* \"#utility.yul\":4745:4752   */\n  dup4\n    /* \"#utility.yul\":4742:4761   */\n  lt\n    /* \"#utility.yul\":4739:4918   */\n  iszero\n  tag_85\n  jumpi\n    /* \"#utility.yul\":4812:4821   */\n  dup5\n    /* \"#utility.yul\":4807:4810   */\n  dup10\n    /* \"#utility.yul\":4803:4822   */\n  add\n    /* \"#utility.yul\":4797:4823   */\n  mload\n    /* \"#utility.yul\":4855:4903   */\n  tag_86\n    /* \"#utility.yul\":4897:4901   */\n  0x1f\n    /* \"#utility.yul\":4889:4895   */\n  dup10\n    /* \"#utility.yul\":4885:4902   */\n  and\n    /* \"#utility.yul\":4874:4883   */\n  dup3\n    /* \"#utility.yul\":4855:4903   */\n  tag_23\n  jump\t// in\ntag_86:\n    /* \"#utility.yul\":4847:4853   */\n  dup4\n    /* \"#utility.yul\":4840:4904   */\n  sstore\n    /* \"#utility.yul\":4762:4918   */\n  pop\n    /* \"#utility.yul\":4739:4918   */\ntag_85:\n    /* \"#utility.yul\":4964:4965   */\n  0x01\n    /* \"#utility.yul\":4960:4961   */\n  0x02\n    /* \"#utility.yul\":4952:4958   */\n  dup9\n    /* \"#utility.yul\":4948:4962   */\n  mul\n    /* \"#utility.yul\":4944:4966   */\n  add\n    /* \"#utility.yul\":4938:4942   */\n  dup9\n    /* \"#utility.yul\":4931:4967   */\n  sstore\n    /* \"#utility.yul\":4367:4977   */\n  pop\n  pop\n  pop\n    /* \"#utility.yul\":4330:5216   */\ntag_77:\n  pop\n    /* \"#utility.yul\":3921:5222   */\n  pop\n  pop\n  pop\n    /* \"#utility.yul\":3830:5222   */\n  pop\n  pop\n  jump\t// out\n    /* \"contracts/AboutDynamicBytesArray.sol\":70:310  contract AboutDynamicBytesArray {... */\ntag_4:\n  dataSize(sub_0)\n  dup1\n  dataOffset(sub_0)\n  0x00\n  codecopy\n  0x00\n  return\nstop\n\nsub_0: assembly {\n        /* \"contracts/AboutDynamicBytesArray.sol\":70:310  contract AboutDynamicBytesArray {... */\n      mstore(0x40, 0x80)\n      callvalue\n      dup1\n      iszero\n      tag_1\n      jumpi\n      0x00\n      dup1\n      revert\n    tag_1:\n      pop\n      jumpi(tag_2, lt(calldatasize, 0x04))\n      shr(0xe0, calldataload(0x00))\n      dup1\n      0x11cc4775\n      eq\n      tag_3\n      jumpi\n      dup1\n      0xee495002\n      eq\n      tag_4\n      jumpi\n    tag_2:\n      0x00\n      dup1\n      revert\n        /* \"contracts/AboutDynamicBytesArray.sol\":137:303  function appendInBytesArray(string memory value) public {... */\n    tag_3:\n      tag_5\n      0x04\n      dup1\n      calldatasize\n      sub\n      dup2\n      add\n      swap1\n      tag_6\n      swap2\n      swap1\n      tag_7\n      jump\t// in\n    tag_6:\n      tag_8\n      jump\t// in\n    tag_5:\n      stop\n        /* \"contracts/AboutDynamicBytesArray.sol\":109:130  bytes public b1=\"abc\" */\n    tag_4:\n      tag_9\n      tag_10\n      jump\t// in\n    tag_9:\n      mload(0x40)\n      tag_11\n      swap2\n      swap1\n      tag_12\n      jump\t// in\n    tag_11:\n      mload(0x40)\n      dup1\n      swap2\n      sub\n      swap1\n      return\n        /* \"contracts/AboutDynamicBytesArray.sol\":137:303  function appendInBytesArray(string memory value) public {... */\n    tag_8:\n        /* \"contracts/AboutDynamicBytesArray.sol\":212:235  bytes memory bytesValue */\n      0x00\n        /* \"contracts/AboutDynamicBytesArray.sol\":244:249  value */\n      dup2\n        /* \"contracts/AboutDynamicBytesArray.sol\":212:250  bytes memory bytesValue = bytes(value) */\n      swap1\n      pop\n        /* \"contracts/AboutDynamicBytesArray.sol\":282:284  b1 */\n      0x00\n        /* \"contracts/AboutDynamicBytesArray.sol\":285:295  bytesValue */\n      dup2\n        /* \"contracts/AboutDynamicBytesArray.sol\":265:296  abi.encodePacked(b1,bytesValue) */\n      add(0x20, mload(0x40))\n      tag_14\n      swap3\n      swap2\n      swap1\n      tag_15\n      jump\t// in\n    tag_14:\n      mload(0x40)\n      0x20\n      dup2\n      dup4\n      sub\n      sub\n      dup2\n      mstore\n      swap1\n      0x40\n      mstore\n        /* \"contracts/AboutDynamicBytesArray.sol\":261:263  b1 */\n      0x00\n        /* \"contracts/AboutDynamicBytesArray.sol\":261:296  b1 =abi.encodePacked(b1,bytesValue) */\n      swap1\n      dup2\n      tag_16\n      swap2\n      swap1\n      tag_17\n      jump\t// in\n    tag_16:\n      pop\n        /* \"contracts/AboutDynamicBytesArray.sol\":193:303  {... */\n      pop\n        /* \"contracts/AboutDynamicBytesArray.sol\":137:303  function appendInBytesArray(string memory value) public {... */\n      pop\n      jump\t// out\n        /* \"contracts/AboutDynamicBytesArray.sol\":109:130  bytes public b1=\"abc\" */\n    tag_10:\n      0x00\n      dup1\n      sload\n      tag_18\n      swap1\n      tag_19\n      jump\t// in\n    tag_18:\n      dup1\n      0x1f\n      add\n      0x20\n      dup1\n      swap2\n      div\n      mul\n      0x20\n      add\n      mload(0x40)\n      swap1\n      dup2\n      add\n      0x40\n      mstore\n      dup1\n      swap3\n      swap2\n      swap1\n      dup2\n      dup2\n      mstore\n      0x20\n      add\n      dup3\n      dup1\n      sload\n      tag_20\n      swap1\n      tag_19\n      jump\t// in\n    tag_20:\n      dup1\n      iszero\n      tag_21\n      jumpi\n      dup1\n      0x1f\n      lt\n      tag_22\n      jumpi\n      0x0100\n      dup1\n      dup4\n      sload\n      div\n      mul\n      dup4\n      mstore\n      swap2\n      0x20\n      add\n      swap2\n      jump(tag_21)\n    tag_22:\n      dup3\n      add\n      swap2\n      swap1\n      0x00\n      mstore\n      keccak256(0x00, 0x20)\n      swap1\n    tag_23:\n      dup2\n      sload\n      dup2\n      mstore\n      swap1\n      0x01\n      add\n      swap1\n      0x20\n      add\n      dup1\n      dup4\n      gt\n      tag_23\n      jumpi\n      dup3\n      swap1\n      sub\n      0x1f\n      and\n      dup3\n      add\n      swap2\n    tag_21:\n      pop\n      pop\n      pop\n      pop\n      pop\n      dup2\n      jump\t// out\n        /* \"#utility.yul\":7:82   */\n    tag_24:\n        /* \"#utility.yul\":40:46   */\n      0x00\n        /* \"#utility.yul\":73:75   */\n      0x40\n        /* \"#utility.yul\":67:76   */\n      mload\n        /* \"#utility.yul\":57:76   */\n      swap1\n      pop\n        /* \"#utility.yul\":7:82   */\n      swap1\n      jump\t// out\n        /* \"#utility.yul\":88:205   */\n    tag_25:\n        /* \"#utility.yul\":197:198   */\n      0x00\n        /* \"#utility.yul\":194:195   */\n      dup1\n        /* \"#utility.yul\":187:199   */\n      revert\n        /* \"#utility.yul\":211:328   */\n    tag_26:\n        /* \"#utility.yul\":320:321   */\n      0x00\n        /* \"#utility.yul\":317:318   */\n      dup1\n        /* \"#utility.yul\":310:322   */\n      revert\n        /* \"#utility.yul\":334:451   */\n    tag_27:\n        /* \"#utility.yul\":443:444   */\n      0x00\n        /* \"#utility.yul\":440:441   */\n      dup1\n        /* \"#utility.yul\":433:445   */\n      revert\n        /* \"#utility.yul\":457:574   */\n    tag_28:\n        /* \"#utility.yul\":566:567   */\n      0x00\n        /* \"#utility.yul\":563:564   */\n      dup1\n        /* \"#utility.yul\":556:568   */\n      revert\n        /* \"#utility.yul\":580:682   */\n    tag_29:\n        /* \"#utility.yul\":621:627   */\n      0x00\n        /* \"#utility.yul\":672:674   */\n      0x1f\n        /* \"#utility.yul\":668:675   */\n      not\n        /* \"#utility.yul\":663:665   */\n      0x1f\n        /* \"#utility.yul\":656:661   */\n      dup4\n        /* \"#utility.yul\":652:666   */\n      add\n        /* \"#utility.yul\":648:676   */\n      and\n        /* \"#utility.yul\":638:676   */\n      swap1\n      pop\n        /* \"#utility.yul\":580:682   */\n      swap2\n      swap1\n      pop\n      jump\t// out\n        /* \"#utility.yul\":688:868   */\n    tag_30:\n        /* \"#utility.yul\":736:813   */\n      0x4e487b7100000000000000000000000000000000000000000000000000000000\n        /* \"#utility.yul\":733:734   */\n      0x00\n        /* \"#utility.yul\":726:814   */\n      mstore\n        /* \"#utility.yul\":833:837   */\n      0x41\n        /* \"#utility.yul\":830:831   */\n      0x04\n        /* \"#utility.yul\":823:838   */\n      mstore\n        /* \"#utility.yul\":857:861   */\n      0x24\n        /* \"#utility.yul\":854:855   */\n      0x00\n        /* \"#utility.yul\":847:862   */\n      revert\n        /* \"#utility.yul\":874:1155   */\n    tag_31:\n        /* \"#utility.yul\":957:984   */\n      tag_70\n        /* \"#utility.yul\":979:983   */\n      dup3\n        /* \"#utility.yul\":957:984   */\n      tag_29\n      jump\t// in\n    tag_70:\n        /* \"#utility.yul\":949:955   */\n      dup2\n        /* \"#utility.yul\":945:985   */\n      add\n        /* \"#utility.yul\":1087:1093   */\n      dup2\n        /* \"#utility.yul\":1075:1085   */\n      dup2\n        /* \"#utility.yul\":1072:1094   */\n      lt\n        /* \"#utility.yul\":1051:1069   */\n      0xffffffffffffffff\n        /* \"#utility.yul\":1039:1049   */\n      dup3\n        /* \"#utility.yul\":1036:1070   */\n      gt\n        /* \"#utility.yul\":1033:1095   */\n      or\n        /* \"#utility.yul\":1030:1118   */\n      iszero\n      tag_71\n      jumpi\n        /* \"#utility.yul\":1098:1116   */\n      tag_72\n      tag_30\n      jump\t// in\n    tag_72:\n        /* \"#utility.yul\":1030:1118   */\n    tag_71:\n        /* \"#utility.yul\":1138:1148   */\n      dup1\n        /* \"#utility.yul\":1134:1136   */\n      0x40\n        /* \"#utility.yul\":1127:1149   */\n      mstore\n        /* \"#utility.yul\":917:1155   */\n      pop\n        /* \"#utility.yul\":874:1155   */\n      pop\n      pop\n      jump\t// out\n        /* \"#utility.yul\":1161:1290   */\n    tag_32:\n        /* \"#utility.yul\":1195:1201   */\n      0x00\n        /* \"#utility.yul\":1222:1242   */\n      tag_74\n      tag_24\n      jump\t// in\n    tag_74:\n        /* \"#utility.yul\":1212:1242   */\n      swap1\n      pop\n        /* \"#utility.yul\":1251:1284   */\n      tag_75\n        /* \"#utility.yul\":1279:1283   */\n      dup3\n        /* \"#utility.yul\":1271:1277   */\n      dup3\n        /* \"#utility.yul\":1251:1284   */\n      tag_31\n      jump\t// in\n    tag_75:\n        /* \"#utility.yul\":1161:1290   */\n      swap2\n      swap1\n      pop\n      jump\t// out\n        /* \"#utility.yul\":1296:1604   */\n    tag_33:\n        /* \"#utility.yul\":1358:1362   */\n      0x00\n        /* \"#utility.yul\":1448:1466   */\n      0xffffffffffffffff\n        /* \"#utility.yul\":1440:1446   */\n      dup3\n        /* \"#utility.yul\":1437:1467   */\n      gt\n        /* \"#utility.yul\":1434:1490   */\n      iszero\n      tag_77\n      jumpi\n        /* \"#utility.yul\":1470:1488   */\n      tag_78\n      tag_30\n      jump\t// in\n    tag_78:\n        /* \"#utility.yul\":1434:1490   */\n    tag_77:\n        /* \"#utility.yul\":1508:1537   */\n      tag_79\n        /* \"#utility.yul\":1530:1536   */\n      dup3\n        /* \"#utility.yul\":1508:1537   */\n      tag_29\n      jump\t// in\n    tag_79:\n        /* \"#utility.yul\":1500:1537   */\n      swap1\n      pop\n        /* \"#utility.yul\":1592:1596   */\n      0x20\n        /* \"#utility.yul\":1586:1590   */\n      dup2\n        /* \"#utility.yul\":1582:1597   */\n      add\n        /* \"#utility.yul\":1574:1597   */\n      swap1\n      pop\n        /* \"#utility.yul\":1296:1604   */\n      swap2\n      swap1\n      pop\n      jump\t// out\n        /* \"#utility.yul\":1610:1756   */\n    tag_34:\n        /* \"#utility.yul\":1707:1713   */\n      dup3\n        /* \"#utility.yul\":1702:1705   */\n      dup2\n        /* \"#utility.yul\":1697:1700   */\n      dup4\n        /* \"#utility.yul\":1684:1714   */\n      calldatacopy\n        /* \"#utility.yul\":1748:1749   */\n      0x00\n        /* \"#utility.yul\":1739:1745   */\n      dup4\n        /* \"#utility.yul\":1734:1737   */\n      dup4\n        /* \"#utility.yul\":1730:1746   */\n      add\n        /* \"#utility.yul\":1723:1750   */\n      mstore\n        /* \"#utility.yul\":1610:1756   */\n      pop\n      pop\n      pop\n      jump\t// out\n        /* \"#utility.yul\":1762:2187   */\n    tag_35:\n        /* \"#utility.yul\":1840:1845   */\n      0x00\n        /* \"#utility.yul\":1865:1931   */\n      tag_82\n        /* \"#utility.yul\":1881:1930   */\n      tag_83\n        /* \"#utility.yul\":1923:1929   */\n      dup5\n        /* \"#utility.yul\":1881:1930   */\n      tag_33\n      jump\t// in\n    tag_83:\n        /* \"#utility.yul\":1865:1931   */\n      tag_32\n      jump\t// in\n    tag_82:\n        /* \"#utility.yul\":1856:1931   */\n      swap1\n      pop\n        /* \"#utility.yul\":1954:1960   */\n      dup3\n        /* \"#utility.yul\":1947:1952   */\n      dup2\n        /* \"#utility.yul\":1940:1961   */\n      mstore\n        /* \"#utility.yul\":1992:1996   */\n      0x20\n        /* \"#utility.yul\":1985:1990   */\n      dup2\n        /* \"#utility.yul\":1981:1997   */\n      add\n        /* \"#utility.yul\":2030:2033   */\n      dup5\n        /* \"#utility.yul\":2021:2027   */\n      dup5\n        /* \"#utility.yul\":2016:2019   */\n      dup5\n        /* \"#utility.yul\":2012:2028   */\n      add\n        /* \"#utility.yul\":2009:2034   */\n      gt\n        /* \"#utility.yul\":2006:2118   */\n      iszero\n      tag_84\n      jumpi\n        /* \"#utility.yul\":2037:2116   */\n      tag_85\n      tag_28\n      jump\t// in\n    tag_85:\n        /* \"#utility.yul\":2006:2118   */\n    tag_84:\n        /* \"#utility.yul\":2127:2181   */\n      tag_86\n        /* \"#utility.yul\":2174:2180   */\n      dup5\n        /* \"#utility.yul\":2169:2172   */\n      dup3\n        /* \"#utility.yul\":2164:2167   */\n      dup6\n        /* \"#utility.yul\":2127:2181   */\n      tag_34\n      jump\t// in\n    tag_86:\n        /* \"#utility.yul\":1846:2187   */\n      pop\n        /* \"#utility.yul\":1762:2187   */\n      swap4\n      swap3\n      pop\n      pop\n      pop\n      jump\t// out\n        /* \"#utility.yul\":2207:2547   */\n    tag_36:\n        /* \"#utility.yul\":2263:2268   */\n      0x00\n        /* \"#utility.yul\":2312:2315   */\n      dup3\n        /* \"#utility.yul\":2305:2309   */\n      0x1f\n        /* \"#utility.yul\":2297:2303   */\n      dup4\n        /* \"#utility.yul\":2293:2310   */\n      add\n        /* \"#utility.yul\":2289:2316   */\n      slt\n        /* \"#utility.yul\":2279:2401   */\n      tag_88\n      jumpi\n        /* \"#utility.yul\":2320:2399   */\n      tag_89\n      tag_27\n      jump\t// in\n    tag_89:\n        /* \"#utility.yul\":2279:2401   */\n    tag_88:\n        /* \"#utility.yul\":2437:2443   */\n      dup2\n        /* \"#utility.yul\":2424:2444   */\n      calldataload\n        /* \"#utility.yul\":2462:2541   */\n      tag_90\n        /* \"#utility.yul\":2537:2540   */\n      dup5\n        /* \"#utility.yul\":2529:2535   */\n      dup3\n        /* \"#utility.yul\":2522:2526   */\n      0x20\n        /* \"#utility.yul\":2514:2520   */\n      dup7\n        /* \"#utility.yul\":2510:2527   */\n      add\n        /* \"#utility.yul\":2462:2541   */\n      tag_35\n      jump\t// in\n    tag_90:\n        /* \"#utility.yul\":2453:2541   */\n      swap2\n      pop\n        /* \"#utility.yul\":2269:2547   */\n      pop\n        /* \"#utility.yul\":2207:2547   */\n      swap3\n      swap2\n      pop\n      pop\n      jump\t// out\n        /* \"#utility.yul\":2553:3062   */\n    tag_7:\n        /* \"#utility.yul\":2622:2628   */\n      0x00\n        /* \"#utility.yul\":2671:2673   */\n      0x20\n        /* \"#utility.yul\":2659:2668   */\n      dup3\n        /* \"#utility.yul\":2650:2657   */\n      dup5\n        /* \"#utility.yul\":2646:2669   */\n      sub\n        /* \"#utility.yul\":2642:2674   */\n      slt\n        /* \"#utility.yul\":2639:2758   */\n      iszero\n      tag_92\n      jumpi\n        /* \"#utility.yul\":2677:2756   */\n      tag_93\n      tag_25\n      jump\t// in\n    tag_93:\n        /* \"#utility.yul\":2639:2758   */\n    tag_92:\n        /* \"#utility.yul\":2825:2826   */\n      0x00\n        /* \"#utility.yul\":2814:2823   */\n      dup3\n        /* \"#utility.yul\":2810:2827   */\n      add\n        /* \"#utility.yul\":2797:2828   */\n      calldataload\n        /* \"#utility.yul\":2855:2873   */\n      0xffffffffffffffff\n        /* \"#utility.yul\":2847:2853   */\n      dup2\n        /* \"#utility.yul\":2844:2874   */\n      gt\n        /* \"#utility.yul\":2841:2958   */\n      iszero\n      tag_94\n      jumpi\n        /* \"#utility.yul\":2877:2956   */\n      tag_95\n      tag_26\n      jump\t// in\n    tag_95:\n        /* \"#utility.yul\":2841:2958   */\n    tag_94:\n        /* \"#utility.yul\":2982:3045   */\n      tag_96\n        /* \"#utility.yul\":3037:3044   */\n      dup5\n        /* \"#utility.yul\":3028:3034   */\n      dup3\n        /* \"#utility.yul\":3017:3026   */\n      dup6\n        /* \"#utility.yul\":3013:3035   */\n      add\n        /* \"#utility.yul\":2982:3045   */\n      tag_36\n      jump\t// in\n    tag_96:\n        /* \"#utility.yul\":2972:3045   */\n      swap2\n      pop\n        /* \"#utility.yul\":2768:3055   */\n      pop\n        /* \"#utility.yul\":2553:3062   */\n      swap3\n      swap2\n      pop\n      pop\n      jump\t// out\n        /* \"#utility.yul\":3068:3166   */\n    tag_37:\n        /* \"#utility.yul\":3119:3125   */\n      0x00\n        /* \"#utility.yul\":3153:3158   */\n      dup2\n        /* \"#utility.yul\":3147:3159   */\n      mload\n        /* \"#utility.yul\":3137:3159   */\n      swap1\n      pop\n        /* \"#utility.yul\":3068:3166   */\n      swap2\n      swap1\n      pop\n      jump\t// out\n        /* \"#utility.yul\":3172:3340   */\n    tag_38:\n        /* \"#utility.yul\":3255:3266   */\n      0x00\n        /* \"#utility.yul\":3289:3295   */\n      dup3\n        /* \"#utility.yul\":3284:3287   */\n      dup3\n        /* \"#utility.yul\":3277:3296   */\n      mstore\n        /* \"#utility.yul\":3329:3333   */\n      0x20\n        /* \"#utility.yul\":3324:3327   */\n      dup3\n        /* \"#utility.yul\":3320:3334   */\n      add\n        /* \"#utility.yul\":3305:3334   */\n      swap1\n      pop\n        /* \"#utility.yul\":3172:3340   */\n      swap3\n      swap2\n      pop\n      pop\n      jump\t// out\n        /* \"#utility.yul\":3346:3592   */\n    tag_39:\n        /* \"#utility.yul\":3427:3428   */\n      0x00\n        /* \"#utility.yul\":3437:3550   */\n    tag_100:\n        /* \"#utility.yul\":3451:3457   */\n      dup4\n        /* \"#utility.yul\":3448:3449   */\n      dup2\n        /* \"#utility.yul\":3445:3458   */\n      lt\n        /* \"#utility.yul\":3437:3550   */\n      iszero\n      tag_102\n      jumpi\n        /* \"#utility.yul\":3536:3537   */\n      dup1\n        /* \"#utility.yul\":3531:3534   */\n      dup3\n        /* \"#utility.yul\":3527:3538   */\n      add\n        /* \"#utility.yul\":3521:3539   */\n      mload\n        /* \"#utility.yul\":3517:3518   */\n      dup2\n        /* \"#utility.yul\":3512:3515   */\n      dup5\n        /* \"#utility.yul\":3508:3519   */\n      add\n        /* \"#utility.yul\":3501:3540   */\n      mstore\n        /* \"#utility.yul\":3473:3475   */\n      0x20\n        /* \"#utility.yul\":3470:3471   */\n      dup2\n        /* \"#utility.yul\":3466:3476   */\n      add\n        /* \"#utility.yul\":3461:3476   */\n      swap1\n      pop\n        /* \"#utility.yul\":3437:3550   */\n      jump(tag_100)\n    tag_102:\n        /* \"#utility.yul\":3584:3585   */\n      0x00\n        /* \"#utility.yul\":3575:3581   */\n      dup5\n        /* \"#utility.yul\":3570:3573   */\n      dup5\n        /* \"#utility.yul\":3566:3582   */\n      add\n        /* \"#utility.yul\":3559:3586   */\n      mstore\n        /* \"#utility.yul\":3408:3592   */\n      pop\n        /* \"#utility.yul\":3346:3592   */\n      pop\n      pop\n      pop\n      jump\t// out\n        /* \"#utility.yul\":3598:3971   */\n    tag_40:\n        /* \"#utility.yul\":3684:3687   */\n      0x00\n        /* \"#utility.yul\":3712:3750   */\n      tag_104\n        /* \"#utility.yul\":3744:3749   */\n      dup3\n        /* \"#utility.yul\":3712:3750   */\n      tag_37\n      jump\t// in\n    tag_104:\n        /* \"#utility.yul\":3766:3836   */\n      tag_105\n        /* \"#utility.yul\":3829:3835   */\n      dup2\n        /* \"#utility.yul\":3824:3827   */\n      dup6\n        /* \"#utility.yul\":3766:3836   */\n      tag_38\n      jump\t// in\n    tag_105:\n        /* \"#utility.yul\":3759:3836   */\n      swap4\n      pop\n        /* \"#utility.yul\":3845:3910   */\n      tag_106\n        /* \"#utility.yul\":3903:3909   */\n      dup2\n        /* \"#utility.yul\":3898:3901   */\n      dup6\n        /* \"#utility.yul\":3891:3895   */\n      0x20\n        /* \"#utility.yul\":3884:3889   */\n      dup7\n        /* \"#utility.yul\":3880:3896   */\n      add\n        /* \"#utility.yul\":3845:3910   */\n      tag_39\n      jump\t// in\n    tag_106:\n        /* \"#utility.yul\":3935:3964   */\n      tag_107\n        /* \"#utility.yul\":3957:3963   */\n      dup2\n        /* \"#utility.yul\":3935:3964   */\n      tag_29\n      jump\t// in\n    tag_107:\n        /* \"#utility.yul\":3930:3933   */\n      dup5\n        /* \"#utility.yul\":3926:3965   */\n      add\n        /* \"#utility.yul\":3919:3965   */\n      swap2\n      pop\n        /* \"#utility.yul\":3688:3971   */\n      pop\n        /* \"#utility.yul\":3598:3971   */\n      swap3\n      swap2\n      pop\n      pop\n      jump\t// out\n        /* \"#utility.yul\":3977:4286   */\n    tag_12:\n        /* \"#utility.yul\":4088:4092   */\n      0x00\n        /* \"#utility.yul\":4126:4128   */\n      0x20\n        /* \"#utility.yul\":4115:4124   */\n      dup3\n        /* \"#utility.yul\":4111:4129   */\n      add\n        /* \"#utility.yul\":4103:4129   */\n      swap1\n      pop\n        /* \"#utility.yul\":4175:4184   */\n      dup2\n        /* \"#utility.yul\":4169:4173   */\n      dup2\n        /* \"#utility.yul\":4165:4185   */\n      sub\n        /* \"#utility.yul\":4161:4162   */\n      0x00\n        /* \"#utility.yul\":4150:4159   */\n      dup4\n        /* \"#utility.yul\":4146:4163   */\n      add\n        /* \"#utility.yul\":4139:4186   */\n      mstore\n        /* \"#utility.yul\":4203:4279   */\n      tag_109\n        /* \"#utility.yul\":4274:4278   */\n      dup2\n        /* \"#utility.yul\":4265:4271   */\n      dup5\n        /* \"#utility.yul\":4203:4279   */\n      tag_40\n      jump\t// in\n    tag_109:\n        /* \"#utility.yul\":4195:4279   */\n      swap1\n      pop\n        /* \"#utility.yul\":3977:4286   */\n      swap3\n      swap2\n      pop\n      pop\n      jump\t// out\n        /* \"#utility.yul\":4292:4472   */\n    tag_41:\n        /* \"#utility.yul\":4340:4417   */\n      0x4e487b7100000000000000000000000000000000000000000000000000000000\n        /* \"#utility.yul\":4337:4338   */\n      0x00\n        /* \"#utility.yul\":4330:4418   */\n      mstore\n        /* \"#utility.yul\":4437:4441   */\n      0x22\n        /* \"#utility.yul\":4434:4435   */\n      0x04\n        /* \"#utility.yul\":4427:4442   */\n      mstore\n        /* \"#utility.yul\":4461:4465   */\n      0x24\n        /* \"#utility.yul\":4458:4459   */\n      0x00\n        /* \"#utility.yul\":4451:4466   */\n      revert\n        /* \"#utility.yul\":4478:4798   */\n    tag_19:\n        /* \"#utility.yul\":4522:4528   */\n      0x00\n        /* \"#utility.yul\":4559:4560   */\n      0x02\n        /* \"#utility.yul\":4553:4557   */\n      dup3\n        /* \"#utility.yul\":4549:4561   */\n      div\n        /* \"#utility.yul\":4539:4561   */\n      swap1\n      pop\n        /* \"#utility.yul\":4606:4607   */\n      0x01\n        /* \"#utility.yul\":4600:4604   */\n      dup3\n        /* \"#utility.yul\":4596:4608   */\n      and\n        /* \"#utility.yul\":4627:4645   */\n      dup1\n        /* \"#utility.yul\":4617:4698   */\n      tag_112\n      jumpi\n        /* \"#utility.yul\":4683:4687   */\n      0x7f\n        /* \"#utility.yul\":4675:4681   */\n      dup3\n        /* \"#utility.yul\":4671:4688   */\n      and\n        /* \"#utility.yul\":4661:4688   */\n      swap2\n      pop\n        /* \"#utility.yul\":4617:4698   */\n    tag_112:\n        /* \"#utility.yul\":4745:4747   */\n      0x20\n        /* \"#utility.yul\":4737:4743   */\n      dup3\n        /* \"#utility.yul\":4734:4748   */\n      lt\n        /* \"#utility.yul\":4714:4732   */\n      dup2\n        /* \"#utility.yul\":4711:4749   */\n      sub\n        /* \"#utility.yul\":4708:4792   */\n      tag_113\n      jumpi\n        /* \"#utility.yul\":4764:4782   */\n      tag_114\n      tag_41\n      jump\t// in\n    tag_114:\n        /* \"#utility.yul\":4708:4792   */\n    tag_113:\n        /* \"#utility.yul\":4529:4798   */\n      pop\n        /* \"#utility.yul\":4478:4798   */\n      swap2\n      swap1\n      pop\n      jump\t// out\n        /* \"#utility.yul\":4804:4951   */\n    tag_42:\n        /* \"#utility.yul\":4905:4916   */\n      0x00\n        /* \"#utility.yul\":4942:4945   */\n      dup2\n        /* \"#utility.yul\":4927:4945   */\n      swap1\n      pop\n        /* \"#utility.yul\":4804:4951   */\n      swap3\n      swap2\n      pop\n      pop\n      jump\t// out\n        /* \"#utility.yul\":4957:5097   */\n    tag_43:\n        /* \"#utility.yul\":5005:5009   */\n      0x00\n        /* \"#utility.yul\":5028:5031   */\n      dup2\n        /* \"#utility.yul\":5020:5031   */\n      swap1\n      pop\n        /* \"#utility.yul\":5051:5054   */\n      dup2\n        /* \"#utility.yul\":5048:5049   */\n      0x00\n        /* \"#utility.yul\":5041:5055   */\n      mstore\n        /* \"#utility.yul\":5085:5089   */\n      0x20\n        /* \"#utility.yul\":5082:5083   */\n      0x00\n        /* \"#utility.yul\":5072:5090   */\n      keccak256\n        /* \"#utility.yul\":5064:5090   */\n      swap1\n      pop\n        /* \"#utility.yul\":4957:5097   */\n      swap2\n      swap1\n      pop\n      jump\t// out\n        /* \"#utility.yul\":5125:5995   */\n    tag_44:\n        /* \"#utility.yul\":5226:5229   */\n      0x00\n        /* \"#utility.yul\":5263:5268   */\n      dup2\n        /* \"#utility.yul\":5257:5269   */\n      sload\n        /* \"#utility.yul\":5292:5328   */\n      tag_118\n        /* \"#utility.yul\":5318:5327   */\n      dup2\n        /* \"#utility.yul\":5292:5328   */\n      tag_19\n      jump\t// in\n    tag_118:\n        /* \"#utility.yul\":5344:5432   */\n      tag_119\n        /* \"#utility.yul\":5425:5431   */\n      dup2\n        /* \"#utility.yul\":5420:5423   */\n      dup7\n        /* \"#utility.yul\":5344:5432   */\n      tag_42\n      jump\t// in\n    tag_119:\n        /* \"#utility.yul\":5337:5432   */\n      swap5\n      pop\n        /* \"#utility.yul\":5463:5464   */\n      0x01\n        /* \"#utility.yul\":5452:5461   */\n      dup3\n        /* \"#utility.yul\":5448:5465   */\n      and\n        /* \"#utility.yul\":5479:5480   */\n      0x00\n        /* \"#utility.yul\":5474:5640   */\n      dup2\n      eq\n      tag_121\n      jumpi\n        /* \"#utility.yul\":5654:5655   */\n      0x01\n        /* \"#utility.yul\":5649:5989   */\n      dup2\n      eq\n      tag_122\n      jumpi\n        /* \"#utility.yul\":5441:5989   */\n      jump(tag_120)\n        /* \"#utility.yul\":5474:5640   */\n    tag_121:\n        /* \"#utility.yul\":5558:5562   */\n      0xff\n        /* \"#utility.yul\":5554:5563   */\n      not\n        /* \"#utility.yul\":5543:5552   */\n      dup4\n        /* \"#utility.yul\":5539:5564   */\n      and\n        /* \"#utility.yul\":5534:5537   */\n      dup7\n        /* \"#utility.yul\":5527:5565   */\n      mstore\n        /* \"#utility.yul\":5620:5626   */\n      dup2\n        /* \"#utility.yul\":5613:5627   */\n      iszero\n        /* \"#utility.yul\":5606:5628   */\n      iszero\n        /* \"#utility.yul\":5598:5604   */\n      dup3\n        /* \"#utility.yul\":5594:5629   */\n      mul\n        /* \"#utility.yul\":5589:5592   */\n      dup7\n        /* \"#utility.yul\":5585:5630   */\n      add\n        /* \"#utility.yul\":5578:5630   */\n      swap4\n      pop\n        /* \"#utility.yul\":5474:5640   */\n      jump(tag_120)\n        /* \"#utility.yul\":5649:5989   */\n    tag_122:\n        /* \"#utility.yul\":5716:5753   */\n      tag_123\n        /* \"#utility.yul\":5747:5752   */\n      dup6\n        /* \"#utility.yul\":5716:5753   */\n      tag_43\n      jump\t// in\n    tag_123:\n        /* \"#utility.yul\":5775:5776   */\n      0x00\n        /* \"#utility.yul\":5789:5943   */\n    tag_124:\n        /* \"#utility.yul\":5803:5809   */\n      dup4\n        /* \"#utility.yul\":5800:5801   */\n      dup2\n        /* \"#utility.yul\":5797:5810   */\n      lt\n        /* \"#utility.yul\":5789:5943   */\n      iszero\n      tag_126\n      jumpi\n        /* \"#utility.yul\":5877:5884   */\n      dup2\n        /* \"#utility.yul\":5871:5885   */\n      sload\n        /* \"#utility.yul\":5867:5868   */\n      dup2\n        /* \"#utility.yul\":5862:5865   */\n      dup10\n        /* \"#utility.yul\":5858:5869   */\n      add\n        /* \"#utility.yul\":5851:5886   */\n      mstore\n        /* \"#utility.yul\":5927:5928   */\n      0x01\n        /* \"#utility.yul\":5918:5925   */\n      dup3\n        /* \"#utility.yul\":5914:5929   */\n      add\n        /* \"#utility.yul\":5903:5929   */\n      swap2\n      pop\n        /* \"#utility.yul\":5825:5829   */\n      0x20\n        /* \"#utility.yul\":5822:5823   */\n      dup2\n        /* \"#utility.yul\":5818:5830   */\n      add\n        /* \"#utility.yul\":5813:5830   */\n      swap1\n      pop\n        /* \"#utility.yul\":5789:5943   */\n      jump(tag_124)\n    tag_126:\n        /* \"#utility.yul\":5972:5978   */\n      dup4\n        /* \"#utility.yul\":5967:5970   */\n      dup9\n        /* \"#utility.yul\":5963:5979   */\n      add\n        /* \"#utility.yul\":5956:5979   */\n      swap6\n      pop\n        /* \"#utility.yul\":5656:5989   */\n      pop\n      pop\n        /* \"#utility.yul\":5441:5989   */\n    tag_120:\n      pop\n        /* \"#utility.yul\":5230:5995   */\n      pop\n      pop\n        /* \"#utility.yul\":5125:5995   */\n      swap3\n      swap2\n      pop\n      pop\n      jump\t// out\n        /* \"#utility.yul\":6001:6387   */\n    tag_45:\n        /* \"#utility.yul\":6105:6108   */\n      0x00\n        /* \"#utility.yul\":6133:6171   */\n      tag_128\n        /* \"#utility.yul\":6165:6170   */\n      dup3\n        /* \"#utility.yul\":6133:6171   */\n      tag_37\n      jump\t// in\n    tag_128:\n        /* \"#utility.yul\":6187:6275   */\n      tag_129\n        /* \"#utility.yul\":6268:6274   */\n      dup2\n        /* \"#utility.yul\":6263:6266   */\n      dup6\n        /* \"#utility.yul\":6187:6275   */\n      tag_42\n      jump\t// in\n    tag_129:\n        /* \"#utility.yul\":6180:6275   */\n      swap4\n      pop\n        /* \"#utility.yul\":6284:6349   */\n      tag_130\n        /* \"#utility.yul\":6342:6348   */\n      dup2\n        /* \"#utility.yul\":6337:6340   */\n      dup6\n        /* \"#utility.yul\":6330:6334   */\n      0x20\n        /* \"#utility.yul\":6323:6328   */\n      dup7\n        /* \"#utility.yul\":6319:6335   */\n      add\n        /* \"#utility.yul\":6284:6349   */\n      tag_39\n      jump\t// in\n    tag_130:\n        /* \"#utility.yul\":6374:6380   */\n      dup1\n        /* \"#utility.yul\":6369:6372   */\n      dup5\n        /* \"#utility.yul\":6365:6381   */\n      add\n        /* \"#utility.yul\":6358:6381   */\n      swap2\n      pop\n        /* \"#utility.yul\":6109:6387   */\n      pop\n        /* \"#utility.yul\":6001:6387   */\n      swap3\n      swap2\n      pop\n      pop\n      jump\t// out\n        /* \"#utility.yul\":6393:6814   */\n    tag_15:\n        /* \"#utility.yul\":6566:6569   */\n      0x00\n        /* \"#utility.yul\":6588:6678   */\n      tag_132\n        /* \"#utility.yul\":6674:6677   */\n      dup3\n        /* \"#utility.yul\":6665:6671   */\n      dup6\n        /* \"#utility.yul\":6588:6678   */\n      tag_44\n      jump\t// in\n    tag_132:\n        /* \"#utility.yul\":6581:6678   */\n      swap2\n      pop\n        /* \"#utility.yul\":6695:6788   */\n      tag_133\n        /* \"#utility.yul\":6784:6787   */\n      dup3\n        /* \"#utility.yul\":6775:6781   */\n      dup5\n        /* \"#utility.yul\":6695:6788   */\n      tag_45\n      jump\t// in\n    tag_133:\n        /* \"#utility.yul\":6688:6788   */\n      swap2\n      pop\n        /* \"#utility.yul\":6805:6808   */\n      dup2\n        /* \"#utility.yul\":6798:6808   */\n      swap1\n      pop\n        /* \"#utility.yul\":6393:6814   */\n      swap4\n      swap3\n      pop\n      pop\n      pop\n      jump\t// out\n        /* \"#utility.yul\":6820:6913   */\n    tag_46:\n        /* \"#utility.yul\":6857:6863   */\n      0x00\n        /* \"#utility.yul\":6904:6906   */\n      0x20\n        /* \"#utility.yul\":6899:6901   */\n      0x1f\n        /* \"#utility.yul\":6892:6897   */\n      dup4\n        /* \"#utility.yul\":6888:6902   */\n      add\n        /* \"#utility.yul\":6884:6907   */\n      div\n        /* \"#utility.yul\":6874:6907   */\n      swap1\n      pop\n        /* \"#utility.yul\":6820:6913   */\n      swap2\n      swap1\n      pop\n      jump\t// out\n        /* \"#utility.yul\":6919:7026   */\n    tag_47:\n        /* \"#utility.yul\":6963:6971   */\n      0x00\n        /* \"#utility.yul\":7013:7018   */\n      dup3\n        /* \"#utility.yul\":7007:7011   */\n      dup3\n        /* \"#utility.yul\":7003:7019   */\n      shl\n        /* \"#utility.yul\":6982:7019   */\n      swap1\n      pop\n        /* \"#utility.yul\":6919:7026   */\n      swap3\n      swap2\n      pop\n      pop\n      jump\t// out\n        /* \"#utility.yul\":7032:7425   */\n    tag_48:\n        /* \"#utility.yul\":7101:7107   */\n      0x00\n        /* \"#utility.yul\":7151:7152   */\n      0x08\n        /* \"#utility.yul\":7139:7149   */\n      dup4\n        /* \"#utility.yul\":7135:7153   */\n      mul\n        /* \"#utility.yul\":7174:7271   */\n      tag_137\n        /* \"#utility.yul\":7204:7270   */\n      0xffffffffffffffffffffffffffffffffffffffffffffffffffffffffffffffff\n        /* \"#utility.yul\":7193:7202   */\n      dup3\n        /* \"#utility.yul\":7174:7271   */\n      tag_47\n      jump\t// in\n    tag_137:\n        /* \"#utility.yul\":7292:7331   */\n      tag_138\n        /* \"#utility.yul\":7322:7330   */\n      dup7\n        /* \"#utility.yul\":7311:7320   */\n      dup4\n        /* \"#utility.yul\":7292:7331   */\n      tag_47\n      jump\t// in\n    tag_138:\n        /* \"#utility.yul\":7280:7331   */\n      swap6\n      pop\n        /* \"#utility.yul\":7364:7368   */\n      dup1\n        /* \"#utility.yul\":7360:7369   */\n      not\n        /* \"#utility.yul\":7353:7358   */\n      dup5\n        /* \"#utility.yul\":7349:7370   */\n      and\n        /* \"#utility.yul\":7340:7370   */\n      swap4\n      pop\n        /* \"#utility.yul\":7413:7417   */\n      dup1\n        /* \"#utility.yul\":7403:7411   */\n      dup7\n        /* \"#utility.yul\":7399:7418   */\n      and\n        /* \"#utility.yul\":7392:7397   */\n      dup5\n        /* \"#utility.yul\":7389:7419   */\n      or\n        /* \"#utility.yul\":7379:7419   */\n      swap3\n      pop\n        /* \"#utility.yul\":7108:7425   */\n      pop\n      pop\n        /* \"#utility.yul\":7032:7425   */\n      swap4\n      swap3\n      pop\n      pop\n      pop\n      jump\t// out\n        /* \"#utility.yul\":7431:7508   */\n    tag_49:\n        /* \"#utility.yul\":7468:7475   */\n      0x00\n        /* \"#utility.yul\":7497:7502   */\n      dup2\n        /* \"#utility.yul\":7486:7502   */\n      swap1\n      pop\n        /* \"#utility.yul\":7431:7508   */\n      swap2\n      swap1\n      pop\n      jump\t// out\n        /* \"#utility.yul\":7514:7574   */\n    tag_50:\n        /* \"#utility.yul\":7542:7545   */\n      0x00\n        /* \"#utility.yul\":7563:7568   */\n      dup2\n        /* \"#utility.yul\":7556:7568   */\n      swap1\n      pop\n        /* \"#utility.yul\":7514:7574   */\n      swap2\n      swap1\n      pop\n      jump\t// out\n        /* \"#utility.yul\":7580:7722   */\n    tag_51:\n        /* \"#utility.yul\":7630:7639   */\n      0x00\n        /* \"#utility.yul\":7663:7716   */\n      tag_142\n        /* \"#utility.yul\":7681:7715   */\n      tag_143\n        /* \"#utility.yul\":7690:7714   */\n      tag_144\n        /* \"#utility.yul\":7708:7713   */\n      dup5\n        /* \"#utility.yul\":7690:7714   */\n      tag_49\n      jump\t// in\n    tag_144:\n        /* \"#utility.yul\":7681:7715   */\n      tag_50\n      jump\t// in\n    tag_143:\n        /* \"#utility.yul\":7663:7716   */\n      tag_49\n      jump\t// in\n    tag_142:\n        /* \"#utility.yul\":7650:7716   */\n      swap1\n      pop\n        /* \"#utility.yul\":7580:7722   */\n      swap2\n      swap1\n      pop\n      jump\t// out\n        /* \"#utility.yul\":7728:7803   */\n    tag_52:\n        /* \"#utility.yul\":7771:7774   */\n      0x00\n        /* \"#utility.yul\":7792:7797   */\n      dup2\n        /* \"#utility.yul\":7785:7797   */\n      swap1\n      pop\n        /* \"#utility.yul\":7728:7803   */\n      swap2\n      swap1\n      pop\n      jump\t// out\n        /* \"#utility.yul\":7809:8078   */\n    tag_53:\n        /* \"#utility.yul\":7919:7958   */\n      tag_147\n        /* \"#utility.yul\":7950:7957   */\n      dup4\n        /* \"#utility.yul\":7919:7958   */\n      tag_51\n      jump\t// in\n    tag_147:\n        /* \"#utility.yul\":7980:8071   */\n      tag_148\n        /* \"#utility.yul\":8029:8070   */\n      tag_149\n        /* \"#utility.yul\":8053:8069   */\n      dup3\n        /* \"#utility.yul\":8029:8070   */\n      tag_52\n      jump\t// in\n    tag_149:\n        /* \"#utility.yul\":8021:8027   */\n      dup5\n        /* \"#utility.yul\":8014:8018   */\n      dup5\n        /* \"#utility.yul\":8008:8019   */\n      sload\n        /* \"#utility.yul\":7980:8071   */\n      tag_48\n      jump\t// in\n    tag_148:\n        /* \"#utility.yul\":7974:7978   */\n      dup3\n        /* \"#utility.yul\":7967:8072   */\n      sstore\n        /* \"#utility.yul\":7885:8078   */\n      pop\n        /* \"#utility.yul\":7809:8078   */\n      pop\n      pop\n      pop\n      jump\t// out\n        /* \"#utility.yul\":8084:8157   */\n    tag_54:\n        /* \"#utility.yul\":8129:8132   */\n      0x00\n        /* \"#utility.yul\":8084:8157   */\n      swap1\n      jump\t// out\n        /* \"#utility.yul\":8163:8352   */\n    tag_55:\n        /* \"#utility.yul\":8240:8272   */\n      tag_152\n      tag_54\n      jump\t// in\n    tag_152:\n        /* \"#utility.yul\":8281:8346   */\n      tag_153\n        /* \"#utility.yul\":8339:8345   */\n      dup2\n        /* \"#utility.yul\":8331:8337   */\n      dup5\n        /* \"#utility.yul\":8325:8329   */\n      dup5\n        /* \"#utility.yul\":8281:8346   */\n      tag_53\n      jump\t// in\n    tag_153:\n        /* \"#utility.yul\":8216:8352   */\n      pop\n        /* \"#utility.yul\":8163:8352   */\n      pop\n      pop\n      jump\t// out\n        /* \"#utility.yul\":8358:8544   */\n    tag_56:\n        /* \"#utility.yul\":8418:8538   */\n    tag_155:\n        /* \"#utility.yul\":8435:8438   */\n      dup2\n        /* \"#utility.yul\":8428:8433   */\n      dup2\n        /* \"#utility.yul\":8425:8439   */\n      lt\n        /* \"#utility.yul\":8418:8538   */\n      iszero\n      tag_157\n      jumpi\n        /* \"#utility.yul\":8489:8528   */\n      tag_158\n        /* \"#utility.yul\":8526:8527   */\n      0x00\n        /* \"#utility.yul\":8519:8524   */\n      dup3\n        /* \"#utility.yul\":8489:8528   */\n      tag_55\n      jump\t// in\n    tag_158:\n        /* \"#utility.yul\":8462:8463   */\n      0x01\n        /* \"#utility.yul\":8455:8460   */\n      dup2\n        /* \"#utility.yul\":8451:8464   */\n      add\n        /* \"#utility.yul\":8442:8464   */\n      swap1\n      pop\n        /* \"#utility.yul\":8418:8538   */\n      jump(tag_155)\n    tag_157:\n        /* \"#utility.yul\":8358:8544   */\n      pop\n      pop\n      jump\t// out\n        /* \"#utility.yul\":8550:9091   */\n    tag_57:\n        /* \"#utility.yul\":8650:8652   */\n      0x1f\n        /* \"#utility.yul\":8645:8648   */\n      dup3\n        /* \"#utility.yul\":8642:8653   */\n      gt\n        /* \"#utility.yul\":8639:9084   */\n      iszero\n      tag_160\n      jumpi\n        /* \"#utility.yul\":8684:8721   */\n      tag_161\n        /* \"#utility.yul\":8715:8720   */\n      dup2\n        /* \"#utility.yul\":8684:8721   */\n      tag_43\n      jump\t// in\n    tag_161:\n        /* \"#utility.yul\":8767:8796   */\n      tag_162\n        /* \"#utility.yul\":8785:8795   */\n      dup5\n        /* \"#utility.yul\":8767:8796   */\n      tag_46\n      jump\t// in\n    tag_162:\n        /* \"#utility.yul\":8757:8765   */\n      dup2\n        /* \"#utility.yul\":8753:8797   */\n      add\n        /* \"#utility.yul\":8950:8952   */\n      0x20\n        /* \"#utility.yul\":8938:8948   */\n      dup6\n        /* \"#utility.yul\":8935:8953   */\n      lt\n        /* \"#utility.yul\":8932:8981   */\n      iszero\n      tag_163\n      jumpi\n        /* \"#utility.yul\":8971:8979   */\n      dup2\n        /* \"#utility.yul\":8956:8979   */\n      swap1\n      pop\n        /* \"#utility.yul\":8932:8981   */\n    tag_163:\n        /* \"#utility.yul\":8994:9074   */\n      tag_164\n        /* \"#utility.yul\":9050:9072   */\n      tag_165\n        /* \"#utility.yul\":9068:9071   */\n      dup6\n        /* \"#utility.yul\":9050:9072   */\n      tag_46\n      jump\t// in\n    tag_165:\n        /* \"#utility.yul\":9040:9048   */\n      dup4\n        /* \"#utility.yul\":9036:9073   */\n      add\n        /* \"#utility.yul\":9023:9034   */\n      dup3\n        /* \"#utility.yul\":8994:9074   */\n      tag_56\n      jump\t// in\n    tag_164:\n        /* \"#utility.yul\":8654:9084   */\n      pop\n      pop\n        /* \"#utility.yul\":8639:9084   */\n    tag_160:\n        /* \"#utility.yul\":8550:9091   */\n      pop\n      pop\n      pop\n      jump\t// out\n        /* \"#utility.yul\":9097:9214   */\n    tag_58:\n        /* \"#utility.yul\":9151:9159   */\n      0x00\n        /* \"#utility.yul\":9201:9206   */\n      dup3\n        /* \"#utility.yul\":9195:9199   */\n      dup3\n        /* \"#utility.yul\":9191:9207   */\n      shr\n        /* \"#utility.yul\":9170:9207   */\n      swap1\n      pop\n        /* \"#utility.yul\":9097:9214   */\n      swap3\n      swap2\n      pop\n      pop\n      jump\t// out\n        /* \"#utility.yul\":9220:9389   */\n    tag_59:\n        /* \"#utility.yul\":9264:9270   */\n      0x00\n        /* \"#utility.yul\":9297:9348   */\n      tag_168\n        /* \"#utility.yul\":9345:9346   */\n      0x00\n        /* \"#utility.yul\":9341:9347   */\n      not\n        /* \"#utility.yul\":9333:9338   */\n      dup5\n        /* \"#utility.yul\":9330:9331   */\n      0x08\n        /* \"#utility.yul\":9326:9339   */\n      mul\n        /* \"#utility.yul\":9297:9348   */\n      tag_58\n      jump\t// in\n    tag_168:\n        /* \"#utility.yul\":9293:9349   */\n      not\n        /* \"#utility.yul\":9378:9382   */\n      dup1\n        /* \"#utility.yul\":9372:9376   */\n      dup4\n        /* \"#utility.yul\":9368:9383   */\n      and\n        /* \"#utility.yul\":9358:9383   */\n      swap2\n      pop\n        /* \"#utility.yul\":9271:9389   */\n      pop\n        /* \"#utility.yul\":9220:9389   */\n      swap3\n      swap2\n      pop\n      pop\n      jump\t// out\n        /* \"#utility.yul\":9394:9689   */\n    tag_60:\n        /* \"#utility.yul\":9470:9474   */\n      0x00\n        /* \"#utility.yul\":9616:9645   */\n      tag_170\n        /* \"#utility.yul\":9641:9644   */\n      dup4\n        /* \"#utility.yul\":9635:9639   */\n      dup4\n        /* \"#utility.yul\":9616:9645   */\n      tag_59\n      jump\t// in\n    tag_170:\n        /* \"#utility.yul\":9608:9645   */\n      swap2\n      pop\n        /* \"#utility.yul\":9678:9681   */\n      dup3\n        /* \"#utility.yul\":9675:9676   */\n      0x02\n        /* \"#utility.yul\":9671:9682   */\n      mul\n        /* \"#utility.yul\":9665:9669   */\n      dup3\n        /* \"#utility.yul\":9662:9683   */\n      or\n        /* \"#utility.yul\":9654:9683   */\n      swap1\n      pop\n        /* \"#utility.yul\":9394:9689   */\n      swap3\n      swap2\n      pop\n      pop\n      jump\t// out\n        /* \"#utility.yul\":9694:11084   */\n    tag_17:\n        /* \"#utility.yul\":9809:9845   */\n      tag_172\n        /* \"#utility.yul\":9841:9844   */\n      dup3\n        /* \"#utility.yul\":9809:9845   */\n      tag_37\n      jump\t// in\n    tag_172:\n        /* \"#utility.yul\":9910:9928   */\n      0xffffffffffffffff\n        /* \"#utility.yul\":9902:9908   */\n      dup2\n        /* \"#utility.yul\":9899:9929   */\n      gt\n        /* \"#utility.yul\":9896:9952   */\n      iszero\n      tag_173\n      jumpi\n        /* \"#utility.yul\":9932:9950   */\n      tag_174\n      tag_30\n      jump\t// in\n    tag_174:\n        /* \"#utility.yul\":9896:9952   */\n    tag_173:\n        /* \"#utility.yul\":9976:10014   */\n      tag_175\n        /* \"#utility.yul\":10008:10012   */\n      dup3\n        /* \"#utility.yul\":10002:10013   */\n      sload\n        /* \"#utility.yul\":9976:10014   */\n      tag_19\n      jump\t// in\n    tag_175:\n        /* \"#utility.yul\":10061:10127   */\n      tag_176\n        /* \"#utility.yul\":10120:10126   */\n      dup3\n        /* \"#utility.yul\":10112:10118   */\n      dup3\n        /* \"#utility.yul\":10106:10110   */\n      dup6\n        /* \"#utility.yul\":10061:10127   */\n      tag_57\n      jump\t// in\n    tag_176:\n        /* \"#utility.yul\":10154:10155   */\n      0x00\n        /* \"#utility.yul\":10178:10182   */\n      0x20\n        /* \"#utility.yul\":10165:10182   */\n      swap1\n      pop\n        /* \"#utility.yul\":10210:10212   */\n      0x1f\n        /* \"#utility.yul\":10202:10208   */\n      dup4\n        /* \"#utility.yul\":10199:10213   */\n      gt\n        /* \"#utility.yul\":10227:10228   */\n      0x01\n        /* \"#utility.yul\":10222:10839   */\n      dup2\n      eq\n      tag_178\n      jumpi\n        /* \"#utility.yul\":10883:10884   */\n      0x00\n        /* \"#utility.yul\":10900:10906   */\n      dup5\n        /* \"#utility.yul\":10897:10974   */\n      iszero\n      tag_179\n      jumpi\n        /* \"#utility.yul\":10949:10958   */\n      dup3\n        /* \"#utility.yul\":10944:10947   */\n      dup8\n        /* \"#utility.yul\":10940:10959   */\n      add\n        /* \"#utility.yul\":10934:10960   */\n      mload\n        /* \"#utility.yul\":10925:10960   */\n      swap1\n      pop\n        /* \"#utility.yul\":10897:10974   */\n    tag_179:\n        /* \"#utility.yul\":11000:11067   */\n      tag_180\n        /* \"#utility.yul\":11060:11066   */\n      dup6\n        /* \"#utility.yul\":11053:11058   */\n      dup3\n        /* \"#utility.yul\":11000:11067   */\n      tag_60\n      jump\t// in\n    tag_180:\n        /* \"#utility.yul\":10994:10998   */\n      dup7\n        /* \"#utility.yul\":10987:11068   */\n      sstore\n        /* \"#utility.yul\":10856:11078   */\n      pop\n        /* \"#utility.yul\":10192:11078   */\n      jump(tag_177)\n        /* \"#utility.yul\":10222:10839   */\n    tag_178:\n        /* \"#utility.yul\":10274:10278   */\n      0x1f\n        /* \"#utility.yul\":10270:10279   */\n      not\n        /* \"#utility.yul\":10262:10268   */\n      dup5\n        /* \"#utility.yul\":10258:10280   */\n      and\n        /* \"#utility.yul\":10308:10344   */\n      tag_181\n        /* \"#utility.yul\":10339:10343   */\n      dup7\n        /* \"#utility.yul\":10308:10344   */\n      tag_43\n      jump\t// in\n    tag_181:\n        /* \"#utility.yul\":10366:10367   */\n      0x00\n        /* \"#utility.yul\":10380:10588   */\n    tag_182:\n        /* \"#utility.yul\":10394:10401   */\n      dup3\n        /* \"#utility.yul\":10391:10392   */\n      dup2\n        /* \"#utility.yul\":10388:10402   */\n      lt\n        /* \"#utility.yul\":10380:10588   */\n      iszero\n      tag_184\n      jumpi\n        /* \"#utility.yul\":10473:10482   */\n      dup5\n        /* \"#utility.yul\":10468:10471   */\n      dup10\n        /* \"#utility.yul\":10464:10483   */\n      add\n        /* \"#utility.yul\":10458:10484   */\n      mload\n        /* \"#utility.yul\":10450:10456   */\n      dup3\n        /* \"#utility.yul\":10443:10485   */\n      sstore\n        /* \"#utility.yul\":10524:10525   */\n      0x01\n        /* \"#utility.yul\":10516:10522   */\n      dup3\n        /* \"#utility.yul\":10512:10526   */\n      add\n        /* \"#utility.yul\":10502:10526   */\n      swap2\n      pop\n        /* \"#utility.yul\":10571:10573   */\n      0x20\n        /* \"#utility.yul\":10560:10569   */\n      dup6\n        /* \"#utility.yul\":10556:10574   */\n      add\n        /* \"#utility.yul\":10543:10574   */\n      swap5\n      pop\n        /* \"#utility.yul\":10417:10421   */\n      0x20\n        /* \"#utility.yul\":10414:10415   */\n      dup2\n        /* \"#utility.yul\":10410:10422   */\n      add\n        /* \"#utility.yul\":10405:10422   */\n      swap1\n      pop\n        /* \"#utility.yul\":10380:10588   */\n      jump(tag_182)\n    tag_184:\n        /* \"#utility.yul\":10616:10622   */\n      dup7\n        /* \"#utility.yul\":10607:10614   */\n      dup4\n        /* \"#utility.yul\":10604:10623   */\n      lt\n        /* \"#utility.yul\":10601:10780   */\n      iszero\n      tag_185\n      jumpi\n        /* \"#utility.yul\":10674:10683   */\n      dup5\n        /* \"#utility.yul\":10669:10672   */\n      dup10\n        /* \"#utility.yul\":10665:10684   */\n      add\n        /* \"#utility.yul\":10659:10685   */\n      mload\n        /* \"#utility.yul\":10717:10765   */\n      tag_186\n        /* \"#utility.yul\":10759:10763   */\n      0x1f\n        /* \"#utility.yul\":10751:10757   */\n      dup10\n        /* \"#utility.yul\":10747:10764   */\n      and\n        /* \"#utility.yul\":10736:10745   */\n      dup3\n        /* \"#utility.yul\":10717:10765   */\n      tag_59\n      jump\t// in\n    tag_186:\n        /* \"#utility.yul\":10709:10715   */\n      dup4\n        /* \"#utility.yul\":10702:10766   */\n      sstore\n        /* \"#utility.yul\":10624:10780   */\n      pop\n        /* \"#utility.yul\":10601:10780   */\n    tag_185:\n        /* \"#utility.yul\":10826:10827   */\n      0x01\n        /* \"#utility.yul\":10822:10823   */\n      0x02\n        /* \"#utility.yul\":10814:10820   */\n      dup9\n        /* \"#utility.yul\":10810:10824   */\n      mul\n        /* \"#utility.yul\":10806:10828   */\n      add\n        /* \"#utility.yul\":10800:10804   */\n      dup9\n        /* \"#utility.yul\":10793:10829   */\n      sstore\n        /* \"#utility.yul\":10229:10839   */\n      pop\n      pop\n      pop\n        /* \"#utility.yul\":10192:11078   */\n    tag_177:\n      pop\n        /* \"#utility.yul\":9784:11084   */\n      pop\n      pop\n      pop\n        /* \"#utility.yul\":9694:11084   */\n      pop\n      pop\n      jump\t// out\n\n    auxdata: 0xa26469706673582212204f24fc758584ea476fd93ff655a3f8dec89c7272dc460280d3fa80f66097a47164736f6c63430008120033\n}\n",
				"bytecode": {
					"linkReferences": {},
					"object": "60806040526040518060400160405280600381526020017f6162630000000000000000000000000000000000000000000000000000000000815250600090816200004a9190620002d9565b503480156200005857600080fd5b50620003c0565b600081519050919050565b7f4e487b7100000000000000000000000000000000000000000000000000000000600052604160045260246000fd5b7f4e487b7100000000000000000000000000000000000000000000000000000000600052602260045260246000fd5b60006002820490506001821680620000e157607f821691505b602082108103620000f757620000f662000099565b5b50919050565b60008190508160005260206000209050919050565b60006020601f8301049050919050565b600082821b905092915050565b600060088302620001617fffffffffffffffffffffffffffffffffffffffffffffffffffffffffffffffff8262000122565b6200016d868362000122565b95508019841693508086168417925050509392505050565b6000819050919050565b6000819050919050565b6000620001ba620001b4620001ae8462000185565b6200018f565b62000185565b9050919050565b6000819050919050565b620001d68362000199565b620001ee620001e582620001c1565b8484546200012f565b825550505050565b600090565b62000205620001f6565b62000212818484620001cb565b505050565b5b818110156200023a576200022e600082620001fb565b60018101905062000218565b5050565b601f82111562000289576200025381620000fd565b6200025e8462000112565b810160208510156200026e578190505b620002866200027d8562000112565b83018262000217565b50505b505050565b600082821c905092915050565b6000620002ae600019846008026200028e565b1980831691505092915050565b6000620002c983836200029b565b9150826002028217905092915050565b620002e4826200005f565b67ffffffffffffffff8111156200030057620002ff6200006a565b5b6200030c8254620000c8565b620003198282856200023e565b600060209050601f8311600181146200035157600084156200033c578287015190505b620003488582620002bb565b865550620003b8565b601f1984166200036186620000fd565b60005b828110156200038b5784890151825560018201915060208501945060208101905062000364565b86831015620003ab5784890151620003a7601f8916826200029b565b8355505b6001600288020188555050505b505050505050565b61078380620003d06000396000f3fe608060405234801561001057600080fd5b50600436106100365760003560e01c806311cc47751461003b578063ee49500214610057575b600080fd5b61005560048036038101906100509190610298565b610075565b005b61005f6100b0565b60405161006c9190610360565b60405180910390f35b600081905060008160405160200161008e9291906104b6565b604051602081830303815290604052600090816100ab919061067b565b505050565b600080546100bd906103b1565b80601f01602080910402602001604051908101604052809291908181526020018280546100e9906103b1565b80156101365780601f1061010b57610100808354040283529160200191610136565b820191906000526020600020905b81548152906001019060200180831161011957829003601f168201915b505050505081565b6000604051905090565b600080fd5b600080fd5b600080fd5b600080fd5b6000601f19601f8301169050919050565b7f4e487b7100000000000000000000000000000000000000000000000000000000600052604160045260246000fd5b6101a58261015c565b810181811067ffffffffffffffff821117156101c4576101c361016d565b5b80604052505050565b60006101d761013e565b90506101e3828261019c565b919050565b600067ffffffffffffffff8211156102035761020261016d565b5b61020c8261015c565b9050602081019050919050565b82818337600083830152505050565b600061023b610236846101e8565b6101cd565b90508281526020810184848401111561025757610256610157565b5b610262848285610219565b509392505050565b600082601f83011261027f5761027e610152565b5b813561028f848260208601610228565b91505092915050565b6000602082840312156102ae576102ad610148565b5b600082013567ffffffffffffffff8111156102cc576102cb61014d565b5b6102d88482850161026a565b91505092915050565b600081519050919050565b600082825260208201905092915050565b60005b8381101561031b578082015181840152602081019050610300565b60008484015250505050565b6000610332826102e1565b61033c81856102ec565b935061034c8185602086016102fd565b6103558161015c565b840191505092915050565b6000602082019050818103600083015261037a8184610327565b905092915050565b7f4e487b7100000000000000000000000000000000000000000000000000000000600052602260045260246000fd5b600060028204905060018216806103c957607f821691505b6020821081036103dc576103db610382565b5b50919050565b600081905092915050565b60008190508160005260206000209050919050565b6000815461040f816103b1565b61041981866103e2565b9450600182166000811461043457600181146104495761047c565b60ff198316865281151582028601935061047c565b610452856103ed565b60005b8381101561047457815481890152600182019150602081019050610455565b838801955050505b50505092915050565b6000610490826102e1565b61049a81856103e2565b93506104aa8185602086016102fd565b80840191505092915050565b60006104c28285610402565b91506104ce8284610485565b91508190509392505050565b60006020601f8301049050919050565b600082821b905092915050565b6000600883026105277fffffffffffffffffffffffffffffffffffffffffffffffffffffffffffffffff826104ea565b61053186836104ea565b95508019841693508086168417925050509392505050565b6000819050919050565b6000819050919050565b600061057861057361056e84610549565b610553565b610549565b9050919050565b6000819050919050565b6105928361055d565b6105a661059e8261057f565b8484546104f7565b825550505050565b600090565b6105bb6105ae565b6105c6818484610589565b505050565b5b818110156105ea576105df6000826105b3565b6001810190506105cc565b5050565b601f82111561062f57610600816103ed565b610609846104da565b81016020851015610618578190505b61062c610624856104da565b8301826105cb565b50505b505050565b600082821c905092915050565b600061065260001984600802610634565b1980831691505092915050565b600061066b8383610641565b9150826002028217905092915050565b610684826102e1565b67ffffffffffffffff81111561069d5761069c61016d565b5b6106a782546103b1565b6106b28282856105ee565b600060209050601f8311600181146106e557600084156106d3578287015190505b6106dd858261065f565b865550610745565b601f1984166106f3866103ed565b60005b8281101561071b578489015182556001820191506020850194506020810190506106f6565b868310156107385784890151610734601f891682610641565b8355505b6001600288020188555050505b50505050505056fea26469706673582212204f24fc758584ea476fd93ff655a3f8dec89c7272dc460280d3fa80f66097a47164736f6c63430008120033",
					"opcodes": "PUSH1 0x80 PUSH1 0x40 MSTORE PUSH1 0x40 MLOAD DUP1 PUSH1 0x40 ADD PUSH1 0x40 MSTORE DUP1 PUSH1 0x3 DUP2 MSTORE PUSH1 0x20 ADD PUSH32 0x6162630000000000000000000000000000000000000000000000000000000000 DUP2 MSTORE POP PUSH1 0x0 SWAP1 DUP2 PUSH3 0x4A SWAP2 SWAP1 PUSH3 0x2D9 JUMP JUMPDEST POP CALLVALUE DUP1 ISZERO PUSH3 0x58 JUMPI PUSH1 0x0 DUP1 REVERT JUMPDEST POP PUSH3 0x3C0 JUMP JUMPDEST PUSH1 0x0 DUP2 MLOAD SWAP1 POP SWAP2 SWAP1 POP JUMP JUMPDEST PUSH32 0x4E487B7100000000000000000000000000000000000000000000000000000000 PUSH1 0x0 MSTORE PUSH1 0x41 PUSH1 0x4 MSTORE PUSH1 0x24 PUSH1 0x0 REVERT JUMPDEST PUSH32 0x4E487B7100000000000000000000000000000000000000000000000000000000 PUSH1 0x0 MSTORE PUSH1 0x22 PUSH1 0x4 MSTORE PUSH1 0x24 PUSH1 0x0 REVERT JUMPDEST PUSH1 0x0 PUSH1 0x2 DUP3 DIV SWAP1 POP PUSH1 0x1 DUP3 AND DUP1 PUSH3 0xE1 JUMPI PUSH1 0x7F DUP3 AND SWAP2 POP JUMPDEST PUSH1 0x20 DUP3 LT DUP2 SUB PUSH3 0xF7 JUMPI PUSH3 0xF6 PUSH3 0x99 JUMP JUMPDEST JUMPDEST POP SWAP2 SWAP1 POP JUMP JUMPDEST PUSH1 0x0 DUP2 SWAP1 POP DUP2 PUSH1 0x0 MSTORE PUSH1 0x20 PUSH1 0x0 KECCAK256 SWAP1 POP SWAP2 SWAP1 POP JUMP JUMPDEST PUSH1 0x0 PUSH1 0x20 PUSH1 0x1F DUP4 ADD DIV SWAP1 POP SWAP2 SWAP1 POP JUMP JUMPDEST PUSH1 0x0 DUP3 DUP3 SHL SWAP1 POP SWAP3 SWAP2 POP POP JUMP JUMPDEST PUSH1 0x0 PUSH1 0x8 DUP4 MUL PUSH3 0x161 PUSH32 0xFFFFFFFFFFFFFFFFFFFFFFFFFFFFFFFFFFFFFFFFFFFFFFFFFFFFFFFFFFFFFFFF DUP3 PUSH3 0x122 JUMP JUMPDEST PUSH3 0x16D DUP7 DUP4 PUSH3 0x122 JUMP JUMPDEST SWAP6 POP DUP1 NOT DUP5 AND SWAP4 POP DUP1 DUP7 AND DUP5 OR SWAP3 POP POP POP SWAP4 SWAP3 POP POP POP JUMP JUMPDEST PUSH1 0x0 DUP2 SWAP1 POP SWAP2 SWAP1 POP JUMP JUMPDEST PUSH1 0x0 DUP2 SWAP1 POP SWAP2 SWAP1 POP JUMP JUMPDEST PUSH1 0x0 PUSH3 0x1BA PUSH3 0x1B4 PUSH3 0x1AE DUP5 PUSH3 0x185 JUMP JUMPDEST PUSH3 0x18F JUMP JUMPDEST PUSH3 0x185 JUMP JUMPDEST SWAP1 POP SWAP2 SWAP1 POP JUMP JUMPDEST PUSH1 0x0 DUP2 SWAP1 POP SWAP2 SWAP1 POP JUMP JUMPDEST PUSH3 0x1D6 DUP4 PUSH3 0x199 JUMP JUMPDEST PUSH3 0x1EE PUSH3 0x1E5 DUP3 PUSH3 0x1C1 JUMP JUMPDEST DUP5 DUP5 SLOAD PUSH3 0x12F JUMP JUMPDEST DUP3 SSTORE POP POP POP POP JUMP JUMPDEST PUSH1 0x0 SWAP1 JUMP JUMPDEST PUSH3 0x205 PUSH3 0x1F6 JUMP JUMPDEST PUSH3 0x212 DUP2 DUP5 DUP5 PUSH3 0x1CB JUMP JUMPDEST POP POP POP JUMP JUMPDEST JUMPDEST DUP2 DUP2 LT ISZERO PUSH3 0x23A JUMPI PUSH3 0x22E PUSH1 0x0 DUP3 PUSH3 0x1FB JUMP JUMPDEST PUSH1 0x1 DUP2 ADD SWAP1 POP PUSH3 0x218 JUMP JUMPDEST POP POP JUMP JUMPDEST PUSH1 0x1F DUP3 GT ISZERO PUSH3 0x289 JUMPI PUSH3 0x253 DUP2 PUSH3 0xFD JUMP JUMPDEST PUSH3 0x25E DUP5 PUSH3 0x112 JUMP JUMPDEST DUP2 ADD PUSH1 0x20 DUP6 LT ISZERO PUSH3 0x26E JUMPI DUP2 SWAP1 POP JUMPDEST PUSH3 0x286 PUSH3 0x27D DUP6 PUSH3 0x112 JUMP JUMPDEST DUP4 ADD DUP3 PUSH3 0x217 JUMP JUMPDEST POP POP JUMPDEST POP POP POP JUMP JUMPDEST PUSH1 0x0 DUP3 DUP3 SHR SWAP1 POP SWAP3 SWAP2 POP POP JUMP JUMPDEST PUSH1 0x0 PUSH3 0x2AE PUSH1 0x0 NOT DUP5 PUSH1 0x8 MUL PUSH3 0x28E JUMP JUMPDEST NOT DUP1 DUP4 AND SWAP2 POP POP SWAP3 SWAP2 POP POP JUMP JUMPDEST PUSH1 0x0 PUSH3 0x2C9 DUP4 DUP4 PUSH3 0x29B JUMP JUMPDEST SWAP2 POP DUP3 PUSH1 0x2 MUL DUP3 OR SWAP1 POP SWAP3 SWAP2 POP POP JUMP JUMPDEST PUSH3 0x2E4 DUP3 PUSH3 0x5F JUMP JUMPDEST PUSH8 0xFFFFFFFFFFFFFFFF DUP2 GT ISZERO PUSH3 0x300 JUMPI PUSH3 0x2FF PUSH3 0x6A JUMP JUMPDEST JUMPDEST PUSH3 0x30C DUP3 SLOAD PUSH3 0xC8 JUMP JUMPDEST PUSH3 0x319 DUP3 DUP3 DUP6 PUSH3 0x23E JUMP JUMPDEST PUSH1 0x0 PUSH1 0x20 SWAP1 POP PUSH1 0x1F DUP4 GT PUSH1 0x1 DUP2 EQ PUSH3 0x351 JUMPI PUSH1 0x0 DUP5 ISZERO PUSH3 0x33C JUMPI DUP3 DUP8 ADD MLOAD SWAP1 POP JUMPDEST PUSH3 0x348 DUP6 DUP3 PUSH3 0x2BB JUMP JUMPDEST DUP7 SSTORE POP PUSH3 0x3B8 JUMP JUMPDEST PUSH1 0x1F NOT DUP5 AND PUSH3 0x361 DUP7 PUSH3 0xFD JUMP JUMPDEST PUSH1 0x0 JUMPDEST DUP3 DUP2 LT ISZERO PUSH3 0x38B JUMPI DUP5 DUP10 ADD MLOAD DUP3 SSTORE PUSH1 0x1 DUP3 ADD SWAP2 POP PUSH1 0x20 DUP6 ADD SWAP5 POP PUSH1 0x20 DUP2 ADD SWAP1 POP PUSH3 0x364 JUMP JUMPDEST DUP7 DUP4 LT ISZERO PUSH3 0x3AB JUMPI DUP5 DUP10 ADD MLOAD PUSH3 0x3A7 PUSH1 0x1F DUP10 AND DUP3 PUSH3 0x29B JUMP JUMPDEST DUP4 SSTORE POP JUMPDEST PUSH1 0x1 PUSH1 0x2 DUP9 MUL ADD DUP9 SSTORE POP POP POP JUMPDEST POP POP POP POP POP POP JUMP JUMPDEST PUSH2 0x783 DUP1 PUSH3 0x3D0 PUSH1 0x0 CODECOPY PUSH1 0x0 RETURN INVALID PUSH1 0x80 PUSH1 0x40 MSTORE CALLVALUE DUP1 ISZERO PUSH2 0x10 JUMPI PUSH1 0x0 DUP1 REVERT JUMPDEST POP PUSH1 0x4 CALLDATASIZE LT PUSH2 0x36 JUMPI PUSH1 0x0 CALLDATALOAD PUSH1 0xE0 SHR DUP1 PUSH4 0x11CC4775 EQ PUSH2 0x3B JUMPI DUP1 PUSH4 0xEE495002 EQ PUSH2 0x57 JUMPI JUMPDEST PUSH1 0x0 DUP1 REVERT JUMPDEST PUSH2 0x55 PUSH1 0x4 DUP1 CALLDATASIZE SUB DUP2 ADD SWAP1 PUSH2 0x50 SWAP2 SWAP1 PUSH2 0x298 JUMP JUMPDEST PUSH2 0x75 JUMP JUMPDEST STOP JUMPDEST PUSH2 0x5F PUSH2 0xB0 JUMP JUMPDEST PUSH1 0x40 MLOAD PUSH2 0x6C SWAP2 SWAP1 PUSH2 0x360 JUMP JUMPDEST PUSH1 0x40 MLOAD DUP1 SWAP2 SUB SWAP1 RETURN JUMPDEST PUSH1 0x0 DUP2 SWAP1 POP PUSH1 0x0 DUP2 PUSH1 0x40 MLOAD PUSH1 0x20 ADD PUSH2 0x8E SWAP3 SWAP2 SWAP1 PUSH2 0x4B6 JUMP JUMPDEST PUSH1 0x40 MLOAD PUSH1 0x20 DUP2 DUP4 SUB SUB DUP2 MSTORE SWAP1 PUSH1 0x40 MSTORE PUSH1 0x0 SWAP1 DUP2 PUSH2 0xAB SWAP2 SWAP1 PUSH2 0x67B JUMP JUMPDEST POP POP POP JUMP JUMPDEST PUSH1 0x0 DUP1 SLOAD PUSH2 0xBD SWAP1 PUSH2 0x3B1 JUMP JUMPDEST DUP1 PUSH1 0x1F ADD PUSH1 0x20 DUP1 SWAP2 DIV MUL PUSH1 0x20 ADD PUSH1 0x40 MLOAD SWAP1 DUP2 ADD PUSH1 0x40 MSTORE DUP1 SWAP3 SWAP2 SWAP1 DUP2 DUP2 MSTORE PUSH1 0x20 ADD DUP3 DUP1 SLOAD PUSH2 0xE9 SWAP1 PUSH2 0x3B1 JUMP JUMPDEST DUP1 ISZERO PUSH2 0x136 JUMPI DUP1 PUSH1 0x1F LT PUSH2 0x10B JUMPI PUSH2 0x100 DUP1 DUP4 SLOAD DIV MUL DUP4 MSTORE SWAP2 PUSH1 0x20 ADD SWAP2 PUSH2 0x136 JUMP JUMPDEST DUP3 ADD SWAP2 SWAP1 PUSH1 0x0 MSTORE PUSH1 0x20 PUSH1 0x0 KECCAK256 SWAP1 JUMPDEST DUP2 SLOAD DUP2 MSTORE SWAP1 PUSH1 0x1 ADD SWAP1 PUSH1 0x20 ADD DUP1 DUP4 GT PUSH2 0x119 JUMPI DUP3 SWAP1 SUB PUSH1 0x1F AND DUP3 ADD SWAP2 JUMPDEST POP POP POP POP POP DUP2 JUMP JUMPDEST PUSH1 0x0 PUSH1 0x40 MLOAD SWAP1 POP SWAP1 JUMP JUMPDEST PUSH1 0x0 DUP1 REVERT JUMPDEST PUSH1 0x0 DUP1 REVERT JUMPDEST PUSH1 0x0 DUP1 REVERT JUMPDEST PUSH1 0x0 DUP1 REVERT JUMPDEST PUSH1 0x0 PUSH1 0x1F NOT PUSH1 0x1F DUP4 ADD AND SWAP1 POP SWAP2 SWAP1 POP JUMP JUMPDEST PUSH32 0x4E487B7100000000000000000000000000000000000000000000000000000000 PUSH1 0x0 MSTORE PUSH1 0x41 PUSH1 0x4 MSTORE PUSH1 0x24 PUSH1 0x0 REVERT JUMPDEST PUSH2 0x1A5 DUP3 PUSH2 0x15C JUMP JUMPDEST DUP2 ADD DUP2 DUP2 LT PUSH8 0xFFFFFFFFFFFFFFFF DUP3 GT OR ISZERO PUSH2 0x1C4 JUMPI PUSH2 0x1C3 PUSH2 0x16D JUMP JUMPDEST JUMPDEST DUP1 PUSH1 0x40 MSTORE POP POP POP JUMP JUMPDEST PUSH1 0x0 PUSH2 0x1D7 PUSH2 0x13E JUMP JUMPDEST SWAP1 POP PUSH2 0x1E3 DUP3 DUP3 PUSH2 0x19C JUMP JUMPDEST SWAP2 SWAP1 POP JUMP JUMPDEST PUSH1 0x0 PUSH8 0xFFFFFFFFFFFFFFFF DUP3 GT ISZERO PUSH2 0x203 JUMPI PUSH2 0x202 PUSH2 0x16D JUMP JUMPDEST JUMPDEST PUSH2 0x20C DUP3 PUSH2 0x15C JUMP JUMPDEST SWAP1 POP PUSH1 0x20 DUP2 ADD SWAP1 POP SWAP2 SWAP1 POP JUMP JUMPDEST DUP3 DUP2 DUP4 CALLDATACOPY PUSH1 0x0 DUP4 DUP4 ADD MSTORE POP POP POP JUMP JUMPDEST PUSH1 0x0 PUSH2 0x23B PUSH2 0x236 DUP5 PUSH2 0x1E8 JUMP JUMPDEST PUSH2 0x1CD JUMP JUMPDEST SWAP1 POP DUP3 DUP2 MSTORE PUSH1 0x20 DUP2 ADD DUP5 DUP5 DUP5 ADD GT ISZERO PUSH2 0x257 JUMPI PUSH2 0x256 PUSH2 0x157 JUMP JUMPDEST JUMPDEST PUSH2 0x262 DUP5 DUP3 DUP6 PUSH2 0x219 JUMP JUMPDEST POP SWAP4 SWAP3 POP POP POP JUMP JUMPDEST PUSH1 0x0 DUP3 PUSH1 0x1F DUP4 ADD SLT PUSH2 0x27F JUMPI PUSH2 0x27E PUSH2 0x152 JUMP JUMPDEST JUMPDEST DUP2 CALLDATALOAD PUSH2 0x28F DUP5 DUP3 PUSH1 0x20 DUP7 ADD PUSH2 0x228 JUMP JUMPDEST SWAP2 POP POP SWAP3 SWAP2 POP POP JUMP JUMPDEST PUSH1 0x0 PUSH1 0x20 DUP3 DUP5 SUB SLT ISZERO PUSH2 0x2AE JUMPI PUSH2 0x2AD PUSH2 0x148 JUMP JUMPDEST JUMPDEST PUSH1 0x0 DUP3 ADD CALLDATALOAD PUSH8 0xFFFFFFFFFFFFFFFF DUP2 GT ISZERO PUSH2 0x2CC JUMPI PUSH2 0x2CB PUSH2 0x14D JUMP JUMPDEST JUMPDEST PUSH2 0x2D8 DUP5 DUP3 DUP6 ADD PUSH2 0x26A JUMP JUMPDEST SWAP2 POP POP SWAP3 SWAP2 POP POP JUMP JUMPDEST PUSH1 0x0 DUP2 MLOAD SWAP1 POP SWAP2 SWAP1 POP JUMP JUMPDEST PUSH1 0x0 DUP3 DUP3 MSTORE PUSH1 0x20 DUP3 ADD SWAP1 POP SWAP3 SWAP2 POP POP JUMP JUMPDEST PUSH1 0x0 JUMPDEST DUP4 DUP2 LT ISZERO PUSH2 0x31B JUMPI DUP1 DUP3 ADD MLOAD DUP2 DUP5 ADD MSTORE PUSH1 0x20 DUP2 ADD SWAP1 POP PUSH2 0x300 JUMP JUMPDEST PUSH1 0x0 DUP5 DUP5 ADD MSTORE POP POP POP POP JUMP JUMPDEST PUSH1 0x0 PUSH2 0x332 DUP3 PUSH2 0x2E1 JUMP JUMPDEST PUSH2 0x33C DUP2 DUP6 PUSH2 0x2EC JUMP JUMPDEST SWAP4 POP PUSH2 0x34C DUP2 DUP6 PUSH1 0x20 DUP7 ADD PUSH2 0x2FD JUMP JUMPDEST PUSH2 0x355 DUP2 PUSH2 0x15C JUMP JUMPDEST DUP5 ADD SWAP2 POP POP SWAP3 SWAP2 POP POP JUMP JUMPDEST PUSH1 0x0 PUSH1 0x20 DUP3 ADD SWAP1 POP DUP2 DUP2 SUB PUSH1 0x0 DUP4 ADD MSTORE PUSH2 0x37A DUP2 DUP5 PUSH2 0x327 JUMP JUMPDEST SWAP1 POP SWAP3 SWAP2 POP POP JUMP JUMPDEST PUSH32 0x4E487B7100000000000000000000000000000000000000000000000000000000 PUSH1 0x0 MSTORE PUSH1 0x22 PUSH1 0x4 MSTORE PUSH1 0x24 PUSH1 0x0 REVERT JUMPDEST PUSH1 0x0 PUSH1 0x2 DUP3 DIV SWAP1 POP PUSH1 0x1 DUP3 AND DUP1 PUSH2 0x3C9 JUMPI PUSH1 0x7F DUP3 AND SWAP2 POP JUMPDEST PUSH1 0x20 DUP3 LT DUP2 SUB PUSH2 0x3DC JUMPI PUSH2 0x3DB PUSH2 0x382 JUMP JUMPDEST JUMPDEST POP SWAP2 SWAP1 POP JUMP JUMPDEST PUSH1 0x0 DUP2 SWAP1 POP SWAP3 SWAP2 POP POP JUMP JUMPDEST PUSH1 0x0 DUP2 SWAP1 POP DUP2 PUSH1 0x0 MSTORE PUSH1 0x20 PUSH1 0x0 KECCAK256 SWAP1 POP SWAP2 SWAP1 POP JUMP JUMPDEST PUSH1 0x0 DUP2 SLOAD PUSH2 0x40F DUP2 PUSH2 0x3B1 JUMP JUMPDEST PUSH2 0x419 DUP2 DUP7 PUSH2 0x3E2 JUMP JUMPDEST SWAP5 POP PUSH1 0x1 DUP3 AND PUSH1 0x0 DUP2 EQ PUSH2 0x434 JUMPI PUSH1 0x1 DUP2 EQ PUSH2 0x449 JUMPI PUSH2 0x47C JUMP JUMPDEST PUSH1 0xFF NOT DUP4 AND DUP7 MSTORE DUP2 ISZERO ISZERO DUP3 MUL DUP7 ADD SWAP4 POP PUSH2 0x47C JUMP JUMPDEST PUSH2 0x452 DUP6 PUSH2 0x3ED JUMP JUMPDEST PUSH1 0x0 JUMPDEST DUP4 DUP2 LT ISZERO PUSH2 0x474 JUMPI DUP2 SLOAD DUP2 DUP10 ADD MSTORE PUSH1 0x1 DUP3 ADD SWAP2 POP PUSH1 0x20 DUP2 ADD SWAP1 POP PUSH2 0x455 JUMP JUMPDEST DUP4 DUP9 ADD SWAP6 POP POP POP JUMPDEST POP POP POP SWAP3 SWAP2 POP POP JUMP JUMPDEST PUSH1 0x0 PUSH2 0x490 DUP3 PUSH2 0x2E1 JUMP JUMPDEST PUSH2 0x49A DUP2 DUP6 PUSH2 0x3E2 JUMP JUMPDEST SWAP4 POP PUSH2 0x4AA DUP2 DUP6 PUSH1 0x20 DUP7 ADD PUSH2 0x2FD JUMP JUMPDEST DUP1 DUP5 ADD SWAP2 POP POP SWAP3 SWAP2 POP POP JUMP JUMPDEST PUSH1 0x0 PUSH2 0x4C2 DUP3 DUP6 PUSH2 0x402 JUMP JUMPDEST SWAP2 POP PUSH2 0x4CE DUP3 DUP5 PUSH2 0x485 JUMP JUMPDEST SWAP2 POP DUP2 SWAP1 POP SWAP4 SWAP3 POP POP POP JUMP JUMPDEST PUSH1 0x0 PUSH1 0x20 PUSH1 0x1F DUP4 ADD DIV SWAP1 POP SWAP2 SWAP1 POP JUMP JUMPDEST PUSH1 0x0 DUP3 DUP3 SHL SWAP1 POP SWAP3 SWAP2 POP POP JUMP JUMPDEST PUSH1 0x0 PUSH1 0x8 DUP4 MUL PUSH2 0x527 PUSH32 0xFFFFFFFFFFFFFFFFFFFFFFFFFFFFFFFFFFFFFFFFFFFFFFFFFFFFFFFFFFFFFFFF DUP3 PUSH2 0x4EA JUMP JUMPDEST PUSH2 0x531 DUP7 DUP4 PUSH2 0x4EA JUMP JUMPDEST SWAP6 POP DUP1 NOT DUP5 AND SWAP4 POP DUP1 DUP7 AND DUP5 OR SWAP3 POP POP POP SWAP4 SWAP3 POP POP POP JUMP JUMPDEST PUSH1 0x0 DUP2 SWAP1 POP SWAP2 SWAP1 POP JUMP JUMPDEST PUSH1 0x0 DUP2 SWAP1 POP SWAP2 SWAP1 POP JUMP JUMPDEST PUSH1 0x0 PUSH2 0x578 PUSH2 0x573 PUSH2 0x56E DUP5 PUSH2 0x549 JUMP JUMPDEST PUSH2 0x553 JUMP JUMPDEST PUSH2 0x549 JUMP JUMPDEST SWAP1 POP SWAP2 SWAP1 POP JUMP JUMPDEST PUSH1 0x0 DUP2 SWAP1 POP SWAP2 SWAP1 POP JUMP JUMPDEST PUSH2 0x592 DUP4 PUSH2 0x55D JUMP JUMPDEST PUSH2 0x5A6 PUSH2 0x59E DUP3 PUSH2 0x57F JUMP JUMPDEST DUP5 DUP5 SLOAD PUSH2 0x4F7 JUMP JUMPDEST DUP3 SSTORE POP POP POP POP JUMP JUMPDEST PUSH1 0x0 SWAP1 JUMP JUMPDEST PUSH2 0x5BB PUSH2 0x5AE JUMP JUMPDEST PUSH2 0x5C6 DUP2 DUP5 DUP5 PUSH2 0x589 JUMP JUMPDEST POP POP POP JUMP JUMPDEST JUMPDEST DUP2 DUP2 LT ISZERO PUSH2 0x5EA JUMPI PUSH2 0x5DF PUSH1 0x0 DUP3 PUSH2 0x5B3 JUMP JUMPDEST PUSH1 0x1 DUP2 ADD SWAP1 POP PUSH2 0x5CC JUMP JUMPDEST POP POP JUMP JUMPDEST PUSH1 0x1F DUP3 GT ISZERO PUSH2 0x62F JUMPI PUSH2 0x600 DUP2 PUSH2 0x3ED JUMP JUMPDEST PUSH2 0x609 DUP5 PUSH2 0x4DA JUMP JUMPDEST DUP2 ADD PUSH1 0x20 DUP6 LT ISZERO PUSH2 0x618 JUMPI DUP2 SWAP1 POP JUMPDEST PUSH2 0x62C PUSH2 0x624 DUP6 PUSH2 0x4DA JUMP JUMPDEST DUP4 ADD DUP3 PUSH2 0x5CB JUMP JUMPDEST POP POP JUMPDEST POP POP POP JUMP JUMPDEST PUSH1 0x0 DUP3 DUP3 SHR SWAP1 POP SWAP3 SWAP2 POP POP JUMP JUMPDEST PUSH1 0x0 PUSH2 0x652 PUSH1 0x0 NOT DUP5 PUSH1 0x8 MUL PUSH2 0x634 JUMP JUMPDEST NOT DUP1 DUP4 AND SWAP2 POP POP SWAP3 SWAP2 POP POP JUMP JUMPDEST PUSH1 0x0 PUSH2 0x66B DUP4 DUP4 PUSH2 0x641 JUMP JUMPDEST SWAP2 POP DUP3 PUSH1 0x2 MUL DUP3 OR SWAP1 POP SWAP3 SWAP2 POP POP JUMP JUMPDEST PUSH2 0x684 DUP3 PUSH2 0x2E1 JUMP JUMPDEST PUSH8 0xFFFFFFFFFFFFFFFF DUP2 GT ISZERO PUSH2 0x69D JUMPI PUSH2 0x69C PUSH2 0x16D JUMP JUMPDEST JUMPDEST PUSH2 0x6A7 DUP3 SLOAD PUSH2 0x3B1 JUMP JUMPDEST PUSH2 0x6B2 DUP3 DUP3 DUP6 PUSH2 0x5EE JUMP JUMPDEST PUSH1 0x0 PUSH1 0x20 SWAP1 POP PUSH1 0x1F DUP4 GT PUSH1 0x1 DUP2 EQ PUSH2 0x6E5 JUMPI PUSH1 0x0 DUP5 ISZERO PUSH2 0x6D3 JUMPI DUP3 DUP8 ADD MLOAD SWAP1 POP JUMPDEST PUSH2 0x6DD DUP6 DUP3 PUSH2 0x65F JUMP JUMPDEST DUP7 SSTORE POP PUSH2 0x745 JUMP JUMPDEST PUSH1 0x1F NOT DUP5 AND PUSH2 0x6F3 DUP7 PUSH2 0x3ED JUMP JUMPDEST PUSH1 0x0 JUMPDEST DUP3 DUP2 LT ISZERO PUSH2 0x71B JUMPI DUP5 DUP10 ADD MLOAD DUP3 SSTORE PUSH1 0x1 DUP3 ADD SWAP2 POP PUSH1 0x20 DUP6 ADD SWAP5 POP PUSH1 0x20 DUP2 ADD SWAP1 POP PUSH2 0x6F6 JUMP JUMPDEST DUP7 DUP4 LT ISZERO PUSH2 0x738 JUMPI DUP5 DUP10 ADD MLOAD PUSH2 0x734 PUSH1 0x1F DUP10 AND DUP3 PUSH2 0x641 JUMP JUMPDEST DUP4 SSTORE POP JUMPDEST PUSH1 0x1 PUSH1 0x2 DUP9 MUL ADD DUP9 SSTORE POP POP POP JUMPDEST POP POP POP POP POP POP JUMP INVALID LOG2 PUSH5 0x6970667358 0x22 SLT KECCAK256 0x4F 0x24 0xFC PUSH22 0x8584EA476FD93FF655A3F8DEC89C7272DC460280D3FA DUP1 0xF6 PUSH1 0x97 LOG4 PUSH18 0x64736F6C6343000812003300000000000000 "
				},
				"gasEstimates": {
					"creation": {
						"codeDepositCost": "384600",
						"executionCost": "infinite",
						"totalCost": "infinite"
					},
					"external": {
						"appendInBytesArray(string)": "infinite",
						"b1()": "infinite"
					}
				},
				"methodIdentifiers": {
					"appendInBytesArray(string)": "11cc4775",
					"b1()": "ee495002"
				}
			},
			"storageLayout": {
				"storage": [
					{
						"astId": 4,
						"contract": "contracts/AboutDynamicBytesArray.sol:AboutDynamicBytesArray",
						"label": "b1",
						"offset": 0,
						"slot": "0",
						"type": "t_bytes_storage"
					}
				],
				"types": {
					"t_bytes_storage": {
						"encoding": "bytes",
						"label": "bytes",
						"numberOfBytes": "32"
					}
				}
			},
			"userdoc": {
				"kind": "user",
				"methods": {},
				"version": 1
			}
		}
	}
}